{
  "address": "0xeC75b807167EFdB81A06C500D8A06E26b4fcb3AE",
  "abi": [
    {
      "anonymous": false,
      "inputs": [
        {
          "indexed": true,
          "internalType": "address",
          "name": "user",
          "type": "address"
        },
        {
          "indexed": false,
          "internalType": "uint256",
          "name": "newShare",
          "type": "uint256"
        },
        {
          "indexed": false,
          "internalType": "uint256",
          "name": "claimableAdded",
          "type": "uint256"
        }
      ],
      "name": "ActiveAccountRedistributed",
      "type": "event"
    },
    {
      "anonymous": false,
      "inputs": [
        {
          "indexed": false,
          "internalType": "uint256",
          "name": "usdcAmount",
          "type": "uint256"
        },
        {
          "indexed": false,
          "internalType": "uint256",
          "name": "perpAmount",
          "type": "uint256"
        }
      ],
      "name": "BuybackTriggered",
      "type": "event"
    },
    {
      "anonymous": false,
      "inputs": [
        {
          "indexed": false,
          "internalType": "address",
          "name": "user",
          "type": "address"
        },
        {
          "indexed": false,
          "internalType": "uint256",
          "name": "claimPerpAmount",
          "type": "uint256"
        }
      ],
      "name": "Claimed",
      "type": "event"
    },
    {
      "anonymous": false,
      "inputs": [
        {
          "indexed": true,
          "internalType": "address",
          "name": "user",
          "type": "address"
        },
        {
          "indexed": false,
          "internalType": "uint256",
          "name": "previousShare",
          "type": "uint256"
        },
        {
          "indexed": false,
          "internalType": "uint256",
          "name": "claimableRedeemed",
          "type": "uint256"
        }
      ],
      "name": "InactiveAccountCleared",
      "type": "event"
    },
    {
      "anonymous": false,
      "inputs": [
        {
          "indexed": false,
          "internalType": "uint8",
          "name": "version",
          "type": "uint8"
        }
      ],
      "name": "Initialized",
      "type": "event"
    },
    {
      "anonymous": false,
      "inputs": [
        {
          "indexed": true,
          "internalType": "address",
          "name": "previousOwner",
          "type": "address"
        },
        {
          "indexed": true,
          "internalType": "address",
          "name": "newOwner",
          "type": "address"
        }
      ],
      "name": "OwnershipTransferStarted",
      "type": "event"
    },
    {
      "anonymous": false,
      "inputs": [
        {
          "indexed": true,
          "internalType": "address",
          "name": "previousOwner",
          "type": "address"
        },
        {
          "indexed": true,
          "internalType": "address",
          "name": "newOwner",
          "type": "address"
        }
      ],
      "name": "OwnershipTransferred",
      "type": "event"
    },
    {
      "anonymous": false,
      "inputs": [
        {
          "indexed": false,
          "internalType": "uint256",
          "name": "inactiveUserCount",
          "type": "uint256"
        },
        {
          "indexed": false,
          "internalType": "uint256",
          "name": "activeUserCount",
          "type": "uint256"
        },
        {
          "indexed": false,
          "internalType": "uint256",
          "name": "inactiveShare",
          "type": "uint256"
        },
        {
          "indexed": false,
          "internalType": "uint256",
          "name": "inactiveBudget",
          "type": "uint256"
        },
        {
          "indexed": false,
          "internalType": "uint256",
          "name": "redistributedPerp",
          "type": "uint256"
        },
        {
          "indexed": false,
          "internalType": "uint256",
          "name": "remainingBuybackUsdcAmount",
          "type": "uint256"
        }
      ],
      "name": "Redistribution2025Executed",
      "type": "event"
    },
    {
      "anonymous": false,
      "inputs": [
        {
          "indexed": true,
          "internalType": "address",
          "name": "user",
          "type": "address"
        },
        {
          "indexed": false,
          "internalType": "uint256",
          "name": "previousShare",
          "type": "uint256"
        },
        {
          "indexed": false,
          "internalType": "uint256",
          "name": "newShare",
          "type": "uint256"
        }
      ],
      "name": "UserSharesChanged",
      "type": "event"
    },
    {
      "inputs": [],
      "name": "UNISWAP_V3_ROUTER",
      "outputs": [
        {
          "internalType": "address",
          "name": "",
          "type": "address"
        }
      ],
      "stateMutability": "view",
      "type": "function"
    },
    {
      "inputs": [],
      "name": "WETH",
      "outputs": [
        {
          "internalType": "address",
          "name": "",
          "type": "address"
        }
      ],
      "stateMutability": "view",
      "type": "function"
    },
    {
      "inputs": [],
      "name": "acceptOwnership",
      "outputs": [],
      "stateMutability": "nonpayable",
      "type": "function"
    },
    {
      "inputs": [],
      "name": "claim",
      "outputs": [],
      "stateMutability": "nonpayable",
      "type": "function"
    },
    {
      "inputs": [],
      "name": "getPerp",
      "outputs": [
        {
          "internalType": "address",
          "name": "",
          "type": "address"
        }
      ],
      "stateMutability": "view",
      "type": "function"
    },
    {
      "inputs": [],
      "name": "getPerpBuybackPool",
      "outputs": [
        {
          "internalType": "address",
          "name": "",
          "type": "address"
        }
      ],
      "stateMutability": "view",
      "type": "function"
    },
    {
      "inputs": [],
      "name": "getRemainingBuybackUsdcAmount",
      "outputs": [
        {
          "internalType": "uint256",
          "name": "",
          "type": "uint256"
        }
      ],
      "stateMutability": "view",
      "type": "function"
    },
    {
      "inputs": [
        {
          "internalType": "address",
          "name": "user",
          "type": "address"
        }
      ],
      "name": "getShares",
      "outputs": [
        {
          "internalType": "uint256",
          "name": "",
          "type": "uint256"
        }
      ],
      "stateMutability": "view",
      "type": "function"
    },
    {
      "inputs": [],
      "name": "getUsdc",
      "outputs": [
        {
          "internalType": "address",
          "name": "",
          "type": "address"
        }
      ],
      "stateMutability": "view",
      "type": "function"
    },
    {
      "inputs": [
        {
          "internalType": "uint256",
          "name": "index",
          "type": "uint256"
        }
      ],
      "name": "getUserByIndex",
      "outputs": [
        {
          "internalType": "address",
          "name": "",
          "type": "address"
        }
      ],
      "stateMutability": "view",
      "type": "function"
    },
    {
      "inputs": [
        {
          "internalType": "address",
          "name": "user",
          "type": "address"
        }
      ],
      "name": "getUserClaimableVePerpAmount",
      "outputs": [
        {
          "internalType": "uint256",
          "name": "",
          "type": "uint256"
        }
      ],
      "stateMutability": "view",
      "type": "function"
    },
    {
      "inputs": [],
      "name": "getUserNum",
      "outputs": [
        {
          "internalType": "uint256",
          "name": "",
          "type": "uint256"
        }
      ],
      "stateMutability": "view",
      "type": "function"
    },
    {
      "inputs": [],
      "name": "getVePerp",
      "outputs": [
        {
          "internalType": "address",
          "name": "",
          "type": "address"
        }
      ],
      "stateMutability": "view",
      "type": "function"
    },
    {
      "inputs": [
        {
          "internalType": "address",
          "name": "usdcArg",
          "type": "address"
        },
        {
          "internalType": "address",
          "name": "perpArg",
          "type": "address"
        },
        {
          "internalType": "address",
          "name": "vePerpArg",
          "type": "address"
        },
        {
          "internalType": "address",
          "name": "perpBuybackPoolArg",
          "type": "address"
        }
      ],
      "name": "initialize",
      "outputs": [],
      "stateMutability": "nonpayable",
      "type": "function"
    },
    {
      "inputs": [],
      "name": "owner",
      "outputs": [
        {
          "internalType": "address",
          "name": "",
          "type": "address"
        }
      ],
      "stateMutability": "view",
      "type": "function"
    },
    {
      "inputs": [],
      "name": "pendingOwner",
      "outputs": [
        {
          "internalType": "address",
          "name": "",
          "type": "address"
        }
      ],
      "stateMutability": "view",
      "type": "function"
    },
    {
      "inputs": [],
      "name": "redistribute_2025",
      "outputs": [],
      "stateMutability": "nonpayable",
      "type": "function"
    },
    {
      "inputs": [],
      "name": "renounceOwnership",
      "outputs": [],
      "stateMutability": "nonpayable",
      "type": "function"
    },
    {
      "inputs": [],
      "name": "swapInPerpBuybackPool",
      "outputs": [],
      "stateMutability": "nonpayable",
      "type": "function"
    },
    {
      "inputs": [],
      "name": "swapInUniswapV3Pool",
      "outputs": [],
      "stateMutability": "nonpayable",
      "type": "function"
    },
    {
      "inputs": [
        {
          "internalType": "address",
          "name": "newOwner",
          "type": "address"
        }
      ],
      "name": "transferOwnership",
      "outputs": [],
      "stateMutability": "nonpayable",
      "type": "function"
    },
    {
      "inputs": [
        {
          "internalType": "address",
          "name": "token",
          "type": "address"
        },
        {
          "internalType": "uint256",
          "name": "tokenAmount",
          "type": "uint256"
        }
      ],
      "name": "withdrawToken",
      "outputs": [],
      "stateMutability": "nonpayable",
      "type": "function"
    }
  ],
  "transactionHash": "0x43409022443e86d519deaaf277beeae014380a5c1e61b90b584fc56878ae02de",
  "args": [],
  "numDeployments": 3,
  "solcInputHash": "93c08326ff72965f62d5636ce15fb2fb",
  "bytecode": "0x608060405234801561001057600080fd5b5061240b806100206000396000f3fe608060405234801561001057600080fd5b50600436106101425760003560e01c80638da5cb5b116100b8578063e30c39781161007c578063e30c397814610257578063f04da65b14610268578063f07f31bd1461027b578063f2fde38b14610283578063f8c8765e14610296578063ff5d32fe146102a957600080fd5b80638da5cb5b1461020c5780639e281a981461021d578063ad5c464814610230578063cdce52061461023e578063da9012a81461024657600080fd5b80634e71d92d1161010a5780634e71d92d146101b957806354922e24146101c35780636403f1f0146101cb578063715018a6146101f457806379ba5097146101fc57806386f58cfd1461020457600080fd5b80630dee14f81461014757806312f3fe761461016a578063260095f71461017b5780633f23b0201461018d57806341c64a2f1461019e575b600080fd5b60ca546001600160a01b03165b60405161016191906120ce565b60405180910390f35b60c9546001600160a01b0316610154565b60cd545b604051908152602001610161565b60cc546001600160a01b0316610154565b61015473e592427a0aece92de3edee1f18e0157c0586156481565b6101c16102bc565b005b6101c161057b565b61017f6101d93660046120fe565b6001600160a01b0316600090815260ce602052604090205490565b6101c1610809565b6101c161081b565b6101c1610895565b6065546001600160a01b0316610154565b6101c161022b366004612119565b611150565b6101546006602160991b0181565b61017f611250565b60cb546001600160a01b0316610154565b6097546001600160a01b0316610154565b61017f6102763660046120fe565b611261565b6101c1611274565b6101c16102913660046120fe565b6115b1565b6101c16102a4366004612143565b611622565b6101546102b7366004612197565b611b53565b6102c4611b69565b336102d060cf82611bc2565b61030c5760405162461bcd60e51b815260206004820152600860248201526750425f554e49554d60c01b60448201526064015b60405180910390fd5b60cb546001600160a01b0316600062093a8061032881426121c6565b61033291906121e8565b90506000826001600160a01b031663adc63589856040518263ffffffff1660e01b815260040161036291906120ce565b602060405180830381865afa15801561037f573d6000803e3d6000fd5b505050506040513d601f19601f820116820180604052508101906103a391906121ff565b90506103b362093a80601a6121e8565b6103bd9083612218565b81116103f75760405162461bcd60e51b815260206004820152600960248201526850425f45544c32365760b81b6044820152606401610303565b6001600160a01b038416600090815260ce6020526040902054806104485760405162461bcd60e51b815260206004820152600860248201526728212faaa1a0a4ad60c11b6044820152606401610303565b6001600160a01b03808616600090815260ce60205260408082209190915560ca54905163095ea7b360e01b815291169063095ea7b39061048e908790859060040161222b565b6020604051808303816000875af11580156104ad573d6000803e3d6000fd5b505050506040513d601f19601f820116820180604052508101906104d19190612244565b50604051631d23139f60e11b81526001600160a01b03851690633a46273e90610500908890859060040161222b565b600060405180830381600087803b15801561051a57600080fd5b505af115801561052e573d6000803e3d6000fd5b505050507fd8138f8a3f377c5259ca548e70e4c2de94f129f5a11036a15b69513cba2b426a858260405161056392919061222b565b60405180910390a1505050505061057960018055565b565b610583611b69565b600060cd54116105a55760405162461bcd60e51b815260040161030390612266565b60c9546040516370a0823160e01b81526000916001600160a01b0316906370a08231906105d69030906004016120ce565b602060405180830381865afa1580156105f3573d6000803e3d6000fd5b505050506040513d601f19601f8201168201806040525081019061061791906121ff565b9050600060cd54821161062a578161062e565b60cd545b90508060cd60008282546106429190612289565b909155505060cc5460c95460405163095ea7b360e01b81526001600160a01b03928316929091169063095ea7b390610680908490869060040161222b565b6020604051808303816000875af115801561069f573d6000803e3d6000fd5b505050506040513d601f19601f820116820180604052508101906106c39190612244565b6106cc57600080fd5b604051634a5c8c6f60e11b8152600481018390526000906001600160a01b038316906394b918de906024016020604051808303816000875af1158015610716573d6000803e3d6000fd5b505050506040513d601f19601f8201168201806040525081019061073a91906121ff565b9050600061074860cf611be4565b905060005b818160ff1610156107d25760008061076960cf60ff8516611bef565b90925090506000620f424061077e83886121e8565b61078891906121c6565b6001600160a01b038416600090815260ce60205260408120805492935083929091906107b5908490612218565b9250508190555050505080806107ca9061229c565b91505061074d565b5060408051858152602081018490527f24894234be47e9feac48ae0362f841cb41e53ca9365b40463ebe55dc62331cff9101610563565b610811611c0d565b6105796000611c67565b60975433906001600160a01b031681146108895760405162461bcd60e51b815260206004820152602960248201527f4f776e61626c6532537465703a2063616c6c6572206973206e6f7420746865206044820152683732bb9037bbb732b960b91b6064820152608401610303565b61089281611c67565b50565b61089d611b69565b6108a5611c0d565b6040805160808101825270ea89990a17ec07a35ac2bbb02214c50152815273a0e04247d39ebc07f38acca38dc10e14fa8d6c9860208201527339e6382ec12e06eff56aead7b785a5d461b70e1391810191909152734a3eb6fea600d7e48256badcbe2931da9fc3999a606082015260cb546001600160a01b031660005b6004811015610a1e57816001600160a01b031663010ae75784836004811061094c5761094c6122bb565b60200201516040518263ffffffff1660e01b815260040161096d91906120ce565b602060405180830381865afa15801561098a573d6000803e3d6000fd5b505050506040513d601f19601f820116820180604052508101906109ae91906121ff565b15610a0e5760405162461bcd60e51b815260206004820152602a60248201527f4163636f756e7420686173207665504552502061637469766974792c2063616e6044820152696e6f742072656d6f766560b01b6064820152608401610303565b610a17816122d1565b9050610922565b5060008060005b6004811015610b72576000858260048110610a4257610a426122bb565b60200201519050600080610a5760cf84611c80565b9150915081610ac25760405162461bcd60e51b815260206004820152603160248201527f496e616374697665206163636f756e74206d757374206578697374206265666f6044820152703932903932b234b9ba3934b13aba34b7b760791b6064820152608401610303565b610acc8187612218565b6001600160a01b038416600090815260ce6020526040902054909650610af28187612218565b6001600160a01b038516600090815260ce60205260408120559550610b1860cf85611c98565b5060408051838152602081018390526001600160a01b038616917f531c351f82723db679dbb376ef3841c98cbbc909986017082aa9e3dbd4b8c899910160405180910390a25050505080610b6b906122d1565b9050610a25565b5060008211610bdd5760405162461bcd60e51b815260206004820152603160248201527f4e6f20696e6163746976652073686172652062616c616e63652072656d61696e6044820152707320746f2072656469737472696275746560781b6064820152608401610303565b604080516102208101825273bb327eba8fc6085e8639e378fe86c73546ddab2d6101e082019081526203f870610200830152815281518083018352739d9250586e0443b49cbc975aa51dfb739c8ec50d81526201bf2c602082810191909152808301919091528251808401845273530defd6c816809f54f6cfa6fe873646f6ecf93081526201731581830152828401528251808401845273353d7e185b1567b7c2a54e031357aa41a7ba2e1f81526201495281830152606083015282518084018452734d930f0e508eedf38b19041225d8af8c153bf5e2815261f72d8183015260808301528251808401845273e35bc00cf7c9d085d08084f2a1213701d6f86bcb815261f77e8183015260a08301528251808401845273b76bf854ef3a9105a2ffe204608d06c7a525960481526168658183015260c0830152825180840184527370d781bbf2a5454fe688452e2d27a9b71aa1e8ab815261b8298183015260e083015282518084018452736a654dc73e4e7666648044149f3a8162fd327c55815261be2881830152610100830152825180840184527389501ea15422db2c483919afeb960be010a8839c815261b38881830152610120830152825180840184527368d779947734306136ebcecfc4aff6eb6ea4f5d98152612c778183015261014083015282518084018452733f48b62e129326c1235891fdebabe2f3451ddd2e81526175c8818301526101608301528251808401845273fd4bd3416270f2a432797b82ca919e6fbc37ebc5815261ab848183015261018083015282518084018452738540078e825f1a7d1c12f3c8cd4dfd7a05fe29958152619fe6818301526101a0830152825180840190935273cacc55289917abaf27ea98c51c9af87c6f94f6bf8352615fab908301526101c0810191909152600f6000805b82811015610f495760008482600f8110610e9357610e936122bb565b60200201519050600080610eb5836000015160cf611c8090919063ffffffff16565b91509150826020015185610ec99190612218565b83516020850151919650610ee09160cf9190611cad565b5082516001600160a01b03167f233aca2c309b54b52e86697dae754528819c3546b163939eccb5c033cab12e0483610f19576000610f1b565b825b60208087015160408051938452918301520160405180910390a250505080610f42906122d1565b9050610e77565b50620f42408114610faf5760405162461bcd60e51b815260206004820152602a60248201527f416374697665207368617265207461626c65206d7573742073756d20746f2053604482015269484152455f5343414c4560b01b6064820152608401610303565b600080610fbc60cf611be4565b905060005b818160ff1610156110a257600080610fdd60cf60ff8516611bef565b9150915088600003610ff0575050611090565b6000620f4240611000838c6121e8565b61100a91906121c6565b6001600160a01b038416600090815260ce6020526040812080549293508392909190611037908490612218565b909155505060408051838152602081018390526001600160a01b038516917fac22c145563a1666d2320250f0d9a58efa4712ffe24759b3c9f92beb49c9d7e8910160405180910390a261108a8187612218565b95505050505b8061109a8161229c565b915050610fc1565b506000620f42406110b9896503434fa0cb306121e8565b6110c391906121c6565b60cd549091508181116110d75760006110e1565b6110e18282612289565b60cd8190556040805160048152602081018990528082018c9052606081018590526080810187905260a0810192909252517f3606d8dc872471d8d67a80050fb57ef8ecf1323332384ed6876c49ff4bbe46669181900360c00190a1505050505050505050505061057960018055565b611158611c0d565b60c9546001600160a01b0383811691161480611181575060ca546001600160a01b038381169116145b156111c25760cd54156111c25760405162461bcd60e51b815260206004820152600960248201526828212fa9212aa0a72d60b91b6044820152606401610303565b60006111d66065546001600160a01b031690565b60405163a9059cbb60e01b81529091506001600160a01b0384169063a9059cbb90611207908490869060040161222b565b6020604051808303816000875af1158015611226573d6000803e3d6000fd5b505050506040513d601f19601f8201168201806040525081019061124a9190612244565b50505050565b600061125c60cf611be4565b905090565b600061126e60cf83611ccb565b92915050565b61127c611c0d565b600060cd541161129e5760405162461bcd60e51b815260040161030390612266565b60c9546040516370a0823160e01b81526000916001600160a01b0316906370a08231906112cf9030906004016120ce565b602060405180830381865afa1580156112ec573d6000803e3d6000fd5b505050506040513d601f19601f8201168201806040525081019061131091906121ff565b9050600060cd5482116113235781611327565b60cd545b90508060cd600082825461133b9190612289565b909155505060c95460405163095ea7b360e01b81526001600160a01b039091169063095ea7b3906113869073e592427a0aece92de3edee1f18e0157c0586156490859060040161222b565b6020604051808303816000875af11580156113a5573d6000803e3d6000fd5b505050506040513d601f19601f820116820180604052508101906113c99190612244565b6113d257600080fd5b60c95460ca546040516bffffffffffffffffffffffff19606093841b81166020830152607d60ea1b6034830152600360611b602160f91b01603783015261017760eb1b604b8301529190921b16604e82015260009060620160408051601f1981840301815260a083018252808352306020840152428383015260608301859052600060808401819052915163c04b8d5960e01b8152909350909173e592427a0aece92de3edee1f18e0157c058615649163c04b8d5991611494916004016122ea565b6020604051808303816000875af11580156114b3573d6000803e3d6000fd5b505050506040513d601f19601f820116820180604052508101906114d791906121ff565b905060006114e560cf611be4565b905060005b818160ff16101561156f5760008061150660cf60ff8516611bef565b90925090506000620f424061151b83886121e8565b61152591906121c6565b6001600160a01b038416600090815260ce6020526040812080549293508392909190611552908490612218565b9250508190555050505080806115679061229c565b9150506114ea565b5060408051858152602081018490527f24894234be47e9feac48ae0362f841cb41e53ca9365b40463ebe55dc62331cff91015b60405180910390a15050505050565b6115b9611c0d565b609780546001600160a01b0383166001600160a01b031990911681179091556115ea6065546001600160a01b031690565b6001600160a01b03167f38d16b8cac22d99fc7c124b9cd0de2d3fa1faef420bfe791d8c362d765e2270060405160405180910390a350565b600054610100900460ff16158080156116425750600054600160ff909116105b80611663575061165130611ce0565b158015611663575060005460ff166001145b6116c65760405162461bcd60e51b815260206004820152602e60248201527f496e697469616c697a61626c653a20636f6e747261637420697320616c72656160448201526d191e481a5b9a5d1a585b1a5e995960921b6064820152608401610303565b6000805460ff1916600117905580156116e9576000805461ff0019166101001790555b6116fb856001600160a01b0316611ce0565b6117315760405162461bcd60e51b815260206004820152600760248201526650425f55494e4360c81b6044820152606401610303565b611743846001600160a01b0316611ce0565b6117795760405162461bcd60e51b815260206004820152600760248201526650425f50494e4360c81b6044820152606401610303565b61178b836001600160a01b0316611ce0565b6117c25760405162461bcd60e51b815260206004820152600860248201526750425f5650494e4360c01b6044820152606401610303565b6117d4826001600160a01b0316611ce0565b61180c5760405162461bcd60e51b815260206004820152600960248201526850425f504250494e4360b81b6044820152606401610303565b60c980546001600160a01b038088166001600160a01b03199283161790925560ca805487841690831617905560cb805486841690831617905560cc80549285169290911691909117905561187660cf70ea89990a17ec07a35ac2bbb02214c5015262034aa5611cad565b5061189a60cf73bb327eba8fc6085e8639e378fe86c73546ddab2d6202ab2d611cad565b506118bd60cf73a0e04247d39ebc07f38acca38dc10e14fa8d6c98611649611cad565b506118e160cf739d9250586e0443b49cbc975aa51dfb739c8ec50d62012c8f611cad565b5061190560cf7339e6382ec12e06eff56aead7b785a5d461b70e13620102dd611cad565b5061192860cf73530defd6c816809f54f6cfa6fe873646f6ecf93061f96a611cad565b5061194b60cf73353d7e185b1567b7c2a54e031357aa41a7ba2e1f61dd58611cad565b5061196e60cf734d930f0e508eedf38b19041225d8af8c153bf5e261a622611cad565b5061199160cf734a3eb6fea600d7e48256badcbe2931da9fc3999a619cf1611cad565b506119b460cf73e35bc00cf7c9d085d08084f2a1213701d6f86bcb61a65a611cad565b506119d760cf73b76bf854ef3a9105a2ffe204608d06c7a525960461462c611cad565b506119fa60cf7370d781bbf2a5454fe688452e2d27a9b71aa1e8ab617bc8611cad565b50611a1d60cf736a654dc73e4e7666648044149f3a8162fd327c55617fcf611cad565b50611a4060cf7389501ea15422db2c483919afeb960be010a8839c6178ab611cad565b50611a6360cf7368d779947734306136ebcecfc4aff6eb6ea4f5d9611de3611cad565b50611a8660cf733f48b62e129326c1235891fdebabe2f3451ddd2e614f2b611cad565b50611aa960cf73fd4bd3416270f2a432797b82ca919e6fbc37ebc5617348611cad565b50611acc60cf738540078e825f1a7d1c12f3c8cd4dfd7a05fe2995616b79611cad565b50611aef60cf73cacc55289917abaf27ea98c51c9af87c6f94f6bf61404d611cad565b506503434fa0cb3060cd55611b02611cef565b611b0a611d1e565b8015611b4c576000805461ff0019169055604051600181527f7f26b83ff96e1f2b6a682f133852f6798a09c465da95921460cefb3847402498906020016115a2565b5050505050565b600080611b6160cf84611bef565b509392505050565b600260015403611bbb5760405162461bcd60e51b815260206004820152601f60248201527f5265656e7472616e637947756172643a207265656e7472616e742063616c6c006044820152606401610303565b6002600155565b6000611bd7836001600160a01b038416611d4d565b9392505050565b60018055565b600061126e82611d59565b6000808080611bfe8686611d64565b909450925050505b9250929050565b6065546001600160a01b031633146105795760405162461bcd60e51b815260206004820181905260248201527f4f776e61626c653a2063616c6c6572206973206e6f7420746865206f776e65726044820152606401610303565b609780546001600160a01b031916905561089281611d8f565b6000808080611bfe866001600160a01b038716611de1565b6000611bd7836001600160a01b038416611e1b565b6000611cc3846001600160a01b03851684611e38565b949350505050565b6000611bd7836001600160a01b038416611e55565b6001600160a01b03163b151590565b600054610100900460ff16611d165760405162461bcd60e51b815260040161030390612374565b610579611ec5565b600054610100900460ff16611d455760405162461bcd60e51b815260040161030390612374565b610579611ef5565b6000611bd78383611f1c565b600061126e82611f34565b60008080611d728585611f3e565b600081815260029690960160205260409095205494959350505050565b606580546001600160a01b038381166001600160a01b0319831681179093556040519116919082907f8be0079c531659141344cd1fd0a4f28419497f9722a3daafe3b4186f6b6457e090600090a35050565b6000818152600283016020526040812054819080611e1057611e038585611d4d565b925060009150611c069050565b600192509050611c06565b60008181526002830160205260408120819055611bd78383611f4a565b60008281526002840160205260408120829055611cc38484611f56565b600081815260028301602052604081205480151580611e795750611e798484611d4d565b611bd75760405162461bcd60e51b815260206004820152601e60248201527f456e756d657261626c654d61703a206e6f6e6578697374656e74206b657900006044820152606401610303565b600054610100900460ff16611eec5760405162461bcd60e51b815260040161030390612374565b61057933611c67565b600054610100900460ff16611bde5760405162461bcd60e51b815260040161030390612374565b60008181526001830160205260408120541515611bd7565b600061126e825490565b6000611bd78383611f62565b6000611bd78383611f8c565b6000611bd7838361207f565b6000826000018281548110611f7957611f796122bb565b9060005260206000200154905092915050565b60008181526001830160205260408120548015612075576000611fb0600183612289565b8554909150600090611fc490600190612289565b9050818114612029576000866000018281548110611fe457611fe46122bb565b9060005260206000200154905080876000018481548110612007576120076122bb565b6000918252602080832090910192909255918252600188019052604090208390555b855486908061203a5761203a6123bf565b60019003818190600052602060002001600090559055856001016000868152602001908152602001600020600090556001935050505061126e565b600091505061126e565b60008181526001830160205260408120546120c65750815460018181018455600084815260208082209093018490558454848252828601909352604090209190915561126e565b50600061126e565b6001600160a01b0391909116815260200190565b80356001600160a01b03811681146120f957600080fd5b919050565b60006020828403121561211057600080fd5b611bd7826120e2565b6000806040838503121561212c57600080fd5b612135836120e2565b946020939093013593505050565b6000806000806080858703121561215957600080fd5b612162856120e2565b9350612170602086016120e2565b925061217e604086016120e2565b915061218c606086016120e2565b905092959194509250565b6000602082840312156121a957600080fd5b5035919050565b634e487b7160e01b600052601160045260246000fd5b6000826121e357634e487b7160e01b600052601260045260246000fd5b500490565b808202811582820484141761126e5761126e6121b0565b60006020828403121561221157600080fd5b5051919050565b8082018082111561126e5761126e6121b0565b6001600160a01b03929092168252602082015260400190565b60006020828403121561225657600080fd5b81518015158114611bd757600080fd5b60208082526009908201526828212fa9212aa0a4ad60b91b604082015260600190565b8181038181111561126e5761126e6121b0565b600060ff821660ff81036122b2576122b26121b0565b60010192915050565b634e487b7160e01b600052603260045260246000fd5b6000600182016122e3576122e36121b0565b5060010190565b60006020808352835160a08285015280518060c086015260005b818110156123205782810184015186820160e001528301612304565b50600060e08287010152918501516001600160a01b0381166040860152916040860151606086015260608601516080860152608086015160a086015260e0601f19601f830116860101935050505092915050565b6020808252602b908201527f496e697469616c697a61626c653a20636f6e7472616374206973206e6f74206960408201526a6e697469616c697a696e6760a81b606082015260800190565b634e487b7160e01b600052603160045260246000fdfea264697066735822122050c60cc7e667672184a7ff5dcfa1d5fde9fb588c7e4fa2360b4c58f0efbfd97764736f6c63430008110033",
  "devdoc": {
    "kind": "dev",
    "methods": {
      "acceptOwnership()": {
        "details": "The new owner accepts the ownership transfer."
      },
      "owner()": {
        "details": "Returns the address of the current owner."
      },
      "pendingOwner()": {
        "details": "Returns the address of the pending owner."
      },
      "redistribute_2025()": {
        "details": "Background: The original buyback proposal (https://gov.perp.fi/t/920) states:      \"If a particular user becomes inactive and did not claim any compensation for more      than 1 year, or it becomes clear that the user doesn't want to claim, then the DAO      treasury multisig has the full right to decide whether to withdraw that PERP and      redistribute to the other users to speed up their pay offs.\"      After >1 year, 4 accounts remained inactive (no vePERP interaction). The DAO treasury      exercised this right to redistribute their allocations to active users.Actions performed:      - Removes 4 inactive accounts from the share map      - Redistributes their unclaimed PERP to active users using updated shares      - Reduces remaining USDC budget to account for removed allocations      - Emits detailed events for off-chain reconciliation      Safety: callable only once by owner (DAO treasury multisig)"
      },
      "renounceOwnership()": {
        "details": "Leaves the contract without owner. It will not be possible to call `onlyOwner` functions anymore. Can only be called by the current owner. NOTE: Renouncing ownership will leave the contract without an owner, thereby removing any functionality that is only available to the owner."
      },
      "transferOwnership(address)": {
        "details": "Starts the ownership transfer of the contract to a new account. Replaces the pending transfer if there is one. Can only be called by the current owner."
      }
    },
    "version": 1
  },
  "userdoc": {
    "kind": "user",
    "methods": {
      "redistribute_2025()": {
        "notice": "One-shot redistribution of inactive user allocations, authorized by governance."
      }
    },
    "version": 1
  },
  "storageLayout": {
    "storage": [
      {
        "astId": 347,
        "contract": "src/PerpBuyback.sol:PerpBuyback",
        "label": "_initialized",
        "offset": 0,
        "slot": "0",
        "type": "t_uint8"
      },
      {
        "astId": 350,
        "contract": "src/PerpBuyback.sol:PerpBuyback",
        "label": "_initializing",
        "offset": 1,
        "slot": "0",
        "type": "t_bool"
      },
      {
        "astId": 523,
        "contract": "src/PerpBuyback.sol:PerpBuyback",
        "label": "_status",
        "offset": 0,
        "slot": "1",
        "type": "t_uint256"
      },
      {
        "astId": 581,
        "contract": "src/PerpBuyback.sol:PerpBuyback",
        "label": "__gap",
        "offset": 0,
        "slot": "2",
        "type": "t_array(t_uint256)49_storage"
      },
      {
        "astId": 985,
        "contract": "src/PerpBuyback.sol:PerpBuyback",
        "label": "__gap",
        "offset": 0,
        "slot": "51",
        "type": "t_array(t_uint256)50_storage"
      },
      {
        "astId": 219,
        "contract": "src/PerpBuyback.sol:PerpBuyback",
        "label": "_owner",
        "offset": 0,
        "slot": "101",
        "type": "t_address"
      },
      {
        "astId": 339,
        "contract": "src/PerpBuyback.sol:PerpBuyback",
        "label": "__gap",
        "offset": 0,
        "slot": "102",
        "type": "t_array(t_uint256)49_storage"
      },
      {
        "astId": 128,
        "contract": "src/PerpBuyback.sol:PerpBuyback",
        "label": "_pendingOwner",
        "offset": 0,
        "slot": "151",
        "type": "t_address"
      },
      {
        "astId": 207,
        "contract": "src/PerpBuyback.sol:PerpBuyback",
        "label": "__gap",
        "offset": 0,
        "slot": "152",
        "type": "t_array(t_uint256)49_storage"
      },
      {
        "astId": 5035,
        "contract": "src/PerpBuyback.sol:PerpBuyback",
        "label": "_usdc",
        "offset": 0,
        "slot": "201",
        "type": "t_address"
      },
      {
        "astId": 5037,
        "contract": "src/PerpBuyback.sol:PerpBuyback",
        "label": "_perp",
        "offset": 0,
        "slot": "202",
        "type": "t_address"
      },
      {
        "astId": 5039,
        "contract": "src/PerpBuyback.sol:PerpBuyback",
        "label": "_vePerp",
        "offset": 0,
        "slot": "203",
        "type": "t_address"
      },
      {
        "astId": 5041,
        "contract": "src/PerpBuyback.sol:PerpBuyback",
        "label": "_perpBuybackPool",
        "offset": 0,
        "slot": "204",
        "type": "t_address"
      },
      {
        "astId": 5043,
        "contract": "src/PerpBuyback.sol:PerpBuyback",
        "label": "_remainingBuybackUsdcAmount",
        "offset": 0,
        "slot": "205",
        "type": "t_uint256"
      },
      {
        "astId": 5047,
        "contract": "src/PerpBuyback.sol:PerpBuyback",
        "label": "_userClaimableVePerpAmount",
        "offset": 0,
        "slot": "206",
        "type": "t_mapping(t_address,t_uint256)"
      },
      {
        "astId": 5050,
        "contract": "src/PerpBuyback.sol:PerpBuyback",
        "label": "_sharesByUser",
        "offset": 0,
        "slot": "207",
        "type": "t_struct(AddressToUintMap)1676_storage"
      }
    ],
    "types": {
      "t_address": {
        "encoding": "inplace",
        "label": "address",
        "numberOfBytes": "20"
      },
      "t_array(t_bytes32)dyn_storage": {
        "base": "t_bytes32",
        "encoding": "dynamic_array",
        "label": "bytes32[]",
        "numberOfBytes": "32"
      },
      "t_array(t_uint256)49_storage": {
        "base": "t_uint256",
        "encoding": "inplace",
        "label": "uint256[49]",
        "numberOfBytes": "1568"
      },
      "t_array(t_uint256)50_storage": {
        "base": "t_uint256",
        "encoding": "inplace",
        "label": "uint256[50]",
        "numberOfBytes": "1600"
      },
      "t_bool": {
        "encoding": "inplace",
        "label": "bool",
        "numberOfBytes": "1"
      },
      "t_bytes32": {
        "encoding": "inplace",
        "label": "bytes32",
        "numberOfBytes": "32"
      },
      "t_mapping(t_address,t_uint256)": {
        "encoding": "mapping",
        "key": "t_address",
        "label": "mapping(address => uint256)",
        "numberOfBytes": "32",
        "value": "t_uint256"
      },
      "t_mapping(t_bytes32,t_bytes32)": {
        "encoding": "mapping",
        "key": "t_bytes32",
        "label": "mapping(bytes32 => bytes32)",
        "numberOfBytes": "32",
        "value": "t_bytes32"
      },
      "t_mapping(t_bytes32,t_uint256)": {
        "encoding": "mapping",
        "key": "t_bytes32",
        "label": "mapping(bytes32 => uint256)",
        "numberOfBytes": "32",
        "value": "t_uint256"
      },
      "t_struct(AddressToUintMap)1676_storage": {
        "encoding": "inplace",
        "label": "struct EnumerableMapUpgradeable.AddressToUintMap",
        "members": [
          {
            "astId": 1675,
            "contract": "src/PerpBuyback.sol:PerpBuyback",
            "label": "_inner",
            "offset": 0,
            "slot": "0",
            "type": "t_struct(Bytes32ToBytes32Map)1002_storage"
          }
        ],
        "numberOfBytes": "96"
      },
      "t_struct(Bytes32Set)2313_storage": {
        "encoding": "inplace",
        "label": "struct EnumerableSetUpgradeable.Bytes32Set",
        "members": [
          {
            "astId": 2312,
            "contract": "src/PerpBuyback.sol:PerpBuyback",
            "label": "_inner",
            "offset": 0,
            "slot": "0",
            "type": "t_struct(Set)2119_storage"
          }
        ],
        "numberOfBytes": "64"
      },
      "t_struct(Bytes32ToBytes32Map)1002_storage": {
        "encoding": "inplace",
        "label": "struct EnumerableMapUpgradeable.Bytes32ToBytes32Map",
        "members": [
          {
            "astId": 997,
            "contract": "src/PerpBuyback.sol:PerpBuyback",
            "label": "_keys",
            "offset": 0,
            "slot": "0",
            "type": "t_struct(Bytes32Set)2313_storage"
          },
          {
            "astId": 1001,
            "contract": "src/PerpBuyback.sol:PerpBuyback",
            "label": "_values",
            "offset": 0,
            "slot": "2",
            "type": "t_mapping(t_bytes32,t_bytes32)"
          }
        ],
        "numberOfBytes": "96"
      },
      "t_struct(Set)2119_storage": {
        "encoding": "inplace",
        "label": "struct EnumerableSetUpgradeable.Set",
        "members": [
          {
            "astId": 2114,
            "contract": "src/PerpBuyback.sol:PerpBuyback",
            "label": "_values",
            "offset": 0,
            "slot": "0",
            "type": "t_array(t_bytes32)dyn_storage"
          },
          {
            "astId": 2118,
            "contract": "src/PerpBuyback.sol:PerpBuyback",
            "label": "_indexes",
            "offset": 0,
            "slot": "1",
            "type": "t_mapping(t_bytes32,t_uint256)"
          }
        ],
        "numberOfBytes": "64"
      },
      "t_uint256": {
        "encoding": "inplace",
        "label": "uint256",
        "numberOfBytes": "32"
      },
      "t_uint8": {
        "encoding": "inplace",
        "label": "uint8",
        "numberOfBytes": "1"
      }
    }
  }
}