{
  "address": "0xb2Bf3132488F383ecBDe0C299C53f1c735277842",
  "abi": [
    {
      "anonymous": false,
      "inputs": [
        {
          "indexed": false,
          "internalType": "uint8",
          "name": "version",
          "type": "uint8"
        }
      ],
      "name": "Initialized",
      "type": "event"
    },
    {
      "anonymous": false,
      "inputs": [
        {
          "indexed": true,
          "internalType": "address",
          "name": "previousOwner",
          "type": "address"
        },
        {
          "indexed": true,
          "internalType": "address",
          "name": "newOwner",
          "type": "address"
        }
      ],
      "name": "OwnershipTransferStarted",
      "type": "event"
    },
    {
      "anonymous": false,
      "inputs": [
        {
          "indexed": true,
          "internalType": "address",
          "name": "previousOwner",
          "type": "address"
        },
        {
          "indexed": true,
          "internalType": "address",
          "name": "newOwner",
          "type": "address"
        }
      ],
      "name": "OwnershipTransferred",
      "type": "event"
    },
    {
      "inputs": [],
      "name": "acceptOwnership",
      "outputs": [],
      "stateMutability": "nonpayable",
      "type": "function"
    },
    {
      "inputs": [],
      "name": "getPerp",
      "outputs": [
        {
          "internalType": "address",
          "name": "",
          "type": "address"
        }
      ],
      "stateMutability": "view",
      "type": "function"
    },
    {
      "inputs": [],
      "name": "getPerpBuyback",
      "outputs": [
        {
          "internalType": "address",
          "name": "",
          "type": "address"
        }
      ],
      "stateMutability": "view",
      "type": "function"
    },
    {
      "inputs": [],
      "name": "getPerpChainlinkAggregator",
      "outputs": [
        {
          "internalType": "address",
          "name": "",
          "type": "address"
        }
      ],
      "stateMutability": "view",
      "type": "function"
    },
    {
      "inputs": [],
      "name": "getUsdc",
      "outputs": [
        {
          "internalType": "address",
          "name": "",
          "type": "address"
        }
      ],
      "stateMutability": "view",
      "type": "function"
    },
    {
      "inputs": [
        {
          "internalType": "address",
          "name": "usdcArg",
          "type": "address"
        },
        {
          "internalType": "address",
          "name": "perpArg",
          "type": "address"
        },
        {
          "internalType": "address",
          "name": "perpChainlinkAggregatorArg",
          "type": "address"
        }
      ],
      "name": "initialize",
      "outputs": [],
      "stateMutability": "nonpayable",
      "type": "function"
    },
    {
      "inputs": [],
      "name": "owner",
      "outputs": [
        {
          "internalType": "address",
          "name": "",
          "type": "address"
        }
      ],
      "stateMutability": "view",
      "type": "function"
    },
    {
      "inputs": [],
      "name": "pendingOwner",
      "outputs": [
        {
          "internalType": "address",
          "name": "",
          "type": "address"
        }
      ],
      "stateMutability": "view",
      "type": "function"
    },
    {
      "inputs": [],
      "name": "renounceOwnership",
      "outputs": [],
      "stateMutability": "nonpayable",
      "type": "function"
    },
    {
      "inputs": [
        {
          "internalType": "address",
          "name": "perpBuybackArg",
          "type": "address"
        }
      ],
      "name": "setPerpBuyback",
      "outputs": [],
      "stateMutability": "nonpayable",
      "type": "function"
    },
    {
      "inputs": [
        {
          "internalType": "uint256",
          "name": "usdcAmount",
          "type": "uint256"
        }
      ],
      "name": "swap",
      "outputs": [
        {
          "internalType": "uint256",
          "name": "",
          "type": "uint256"
        }
      ],
      "stateMutability": "nonpayable",
      "type": "function"
    },
    {
      "inputs": [
        {
          "internalType": "address",
          "name": "newOwner",
          "type": "address"
        }
      ],
      "name": "transferOwnership",
      "outputs": [],
      "stateMutability": "nonpayable",
      "type": "function"
    },
    {
      "inputs": [
        {
          "internalType": "address",
          "name": "token",
          "type": "address"
        },
        {
          "internalType": "uint256",
          "name": "tokenAmount",
          "type": "uint256"
        }
      ],
      "name": "withdrawToken",
      "outputs": [],
      "stateMutability": "nonpayable",
      "type": "function"
    }
  ],
  "transactionHash": "0x83ed715d732ecab461a6e78e5c7d9d760c6bacb836cc1300a55f6128b6f6a54c",
  "args": [],
  "numDeployments": 1,
  "solcInputHash": "3196a25870b6d4f524fef291e4799f2e",
  "bytecode": "0x608060405234801561001057600080fd5b50610d73806100206000396000f3fe608060405234801561001057600080fd5b50600436106100bf5760003560e01c806394b918de1161007c57806394b918de146101335780639e281a9814610154578063c0c53b8b14610167578063df03a7291461017a578063e30c39781461018d578063f0eb59651461019e578063f2fde38b146101af57600080fd5b80630dee14f8146100c457806311573f4b146100ee57806312f3fe76146100ff578063715018a61461011057806379ba50971461011a5780638da5cb5b14610122575b600080fd5b6097546001600160a01b03165b6040516001600160a01b0390911681526020015b60405180910390f35b6099546001600160a01b03166100d1565b6098546001600160a01b03166100d1565b6101186101c2565b005b6101186101d6565b6033546001600160a01b03166100d1565b610146610141366004610a8c565b610255565b6040519081526020016100e5565b610118610162366004610ac1565b6105a7565b610118610175366004610aeb565b610640565b610118610188366004610b2e565b610874565b6065546001600160a01b03166100d1565b609a546001600160a01b03166100d1565b6101186101bd366004610b2e565b6108e8565b6101ca610959565b6101d460006109b3565b565b60655433906001600160a01b031681146102495760405162461bcd60e51b815260206004820152602960248201527f4f776e61626c6532537465703a2063616c6c6572206973206e6f7420746865206044820152683732bb9037bbb732b960b91b60648201526084015b60405180910390fd5b610252816109b3565b50565b6099546000906001600160a01b031633811461029d5760405162461bcd60e51b81526020600482015260076024820152662821282fa7a82160c91b6044820152606401610240565b609a546040805163313ce56760e01b815290516000926001600160a01b03169163313ce5679160048083019260209291908290030181865afa1580156102e7573d6000803e3d6000fd5b505050506040513d601f19601f8201168201806040525081019061030b9190610b50565b90506000609a60009054906101000a90046001600160a01b03166001600160a01b03166350d25bcd6040518163ffffffff1660e01b8152600401602060405180830381865afa158015610362573d6000803e3d6000fd5b505050506040513d601f19601f820116820180604052508101906103869190610b73565b9050600081136103c25760405162461bcd60e51b81526020600482015260076024820152662821282fa7a4ad60c91b6044820152606401610240565b60006103cf83600a610c88565b6103d99083610c97565b90506000816103ed8864e8d4a51000610cb9565b6103f79190610c97565b6097546040516370a0823160e01b81523060048201529192506000916001600160a01b03909116906370a0823190602401602060405180830381865afa158015610445573d6000803e3d6000fd5b505050506040513d601f19601f820116820180604052508101906104699190610b73565b9050808211156104a55760405162461bcd60e51b81526020600482015260076024820152665042505f50424960c81b6044820152606401610240565b6098546040516323b872dd60e01b81526001600160a01b038881166004830152306024830152604482018b9052909116906323b872dd906064016020604051808303816000875af11580156104fe573d6000803e3d6000fd5b505050506040513d601f19601f820116820180604052508101906105229190610cd0565b5060975460405163a9059cbb60e01b81526001600160a01b038881166004830152602482018590529091169063a9059cbb906044016020604051808303816000875af1158015610576573d6000803e3d6000fd5b505050506040513d601f19601f8201168201806040525081019061059a9190610cd0565b5090979650505050505050565b6105af610959565b60006105c36033546001600160a01b031690565b60405163a9059cbb60e01b81526001600160a01b038083166004830152602482018590529192509084169063a9059cbb906044016020604051808303816000875af1158015610616573d6000803e3d6000fd5b505050506040513d601f19601f8201168201806040525081019061063a9190610cd0565b50505050565b600054610100900460ff16158080156106605750600054600160ff909116105b80610681575061066f306109cc565b158015610681575060005460ff166001145b6106e45760405162461bcd60e51b815260206004820152602e60248201527f496e697469616c697a61626c653a20636f6e747261637420697320616c72656160448201526d191e481a5b9a5d1a585b1a5e995960921b6064820152608401610240565b6000805460ff191660011790558015610707576000805461ff0019166101001790555b610719846001600160a01b03166109cc565b6107505760405162461bcd60e51b81526020600482015260086024820152675042505f55494e4360c01b6044820152606401610240565b610762836001600160a01b03166109cc565b6107995760405162461bcd60e51b81526020600482015260086024820152675042505f50494e4360c01b6044820152606401610240565b6107ab826001600160a01b03166109cc565b6107e45760405162461bcd60e51b815260206004820152600a6024820152695042505f504341494e4360b01b6044820152606401610240565b609780546001600160a01b038086166001600160a01b03199283161790925560988054878416908316179055609a8054928516929091169190911790556108296109db565b801561063a576000805461ff0019169055604051600181527f7f26b83ff96e1f2b6a682f133852f6798a09c465da95921460cefb38474024989060200160405180910390a150505050565b61087c610959565b61088e816001600160a01b03166109cc565b6108c65760405162461bcd60e51b81526020600482015260096024820152685042505f5042494e4360b81b6044820152606401610240565b609980546001600160a01b0319166001600160a01b0392909216919091179055565b6108f0610959565b606580546001600160a01b0383166001600160a01b031990911681179091556109216033546001600160a01b031690565b6001600160a01b03167f38d16b8cac22d99fc7c124b9cd0de2d3fa1faef420bfe791d8c362d765e2270060405160405180910390a350565b6033546001600160a01b031633146101d45760405162461bcd60e51b815260206004820181905260248201527f4f776e61626c653a2063616c6c6572206973206e6f7420746865206f776e65726044820152606401610240565b606580546001600160a01b031916905561025281610a0a565b6001600160a01b03163b151590565b600054610100900460ff16610a025760405162461bcd60e51b815260040161024090610cf2565b6101d4610a5c565b603380546001600160a01b038381166001600160a01b0319831681179093556040519116919082907f8be0079c531659141344cd1fd0a4f28419497f9722a3daafe3b4186f6b6457e090600090a35050565b600054610100900460ff16610a835760405162461bcd60e51b815260040161024090610cf2565b6101d4336109b3565b600060208284031215610a9e57600080fd5b5035919050565b80356001600160a01b0381168114610abc57600080fd5b919050565b60008060408385031215610ad457600080fd5b610add83610aa5565b946020939093013593505050565b600080600060608486031215610b0057600080fd5b610b0984610aa5565b9250610b1760208501610aa5565b9150610b2560408501610aa5565b90509250925092565b600060208284031215610b4057600080fd5b610b4982610aa5565b9392505050565b600060208284031215610b6257600080fd5b815160ff81168114610b4957600080fd5b600060208284031215610b8557600080fd5b5051919050565b634e487b7160e01b600052601160045260246000fd5b600181815b80851115610bdd578160001904821115610bc357610bc3610b8c565b80851615610bd057918102915b93841c9390800290610ba7565b509250929050565b600082610bf457506001610c82565b81610c0157506000610c82565b8160018114610c175760028114610c2157610c3d565b6001915050610c82565b60ff841115610c3257610c32610b8c565b50506001821b610c82565b5060208310610133831016604e8410600b8410161715610c60575081810a610c82565b610c6a8383610ba2565b8060001904821115610c7e57610c7e610b8c565b0290505b92915050565b6000610b4960ff841683610be5565b600082610cb457634e487b7160e01b600052601260045260246000fd5b500490565b8082028115828204841417610c8257610c82610b8c565b600060208284031215610ce257600080fd5b81518015158114610b4957600080fd5b6020808252602b908201527f496e697469616c697a61626c653a20636f6e7472616374206973206e6f74206960408201526a6e697469616c697a696e6760a81b60608201526080019056fea26469706673582212208d856952c125a26bd9728a6a344ab71ca6345098dd14380d874f9e79c243721b64736f6c63430008110033",
  "devdoc": {
    "kind": "dev",
    "methods": {
      "acceptOwnership()": {
        "details": "The new owner accepts the ownership transfer."
      },
      "owner()": {
        "details": "Returns the address of the current owner."
      },
      "pendingOwner()": {
        "details": "Returns the address of the pending owner."
      },
      "renounceOwnership()": {
        "details": "Leaves the contract without owner. It will not be possible to call `onlyOwner` functions anymore. Can only be called by the current owner. NOTE: Renouncing ownership will leave the contract without an owner, thereby removing any functionality that is only available to the owner."
      },
      "transferOwnership(address)": {
        "details": "Starts the ownership transfer of the contract to a new account. Replaces the pending transfer if there is one. Can only be called by the current owner."
      }
    },
    "version": 1
  },
  "userdoc": {
    "kind": "user",
    "methods": {},
    "version": 1
  },
  "storageLayout": {
    "storage": [
      {
        "astId": 347,
        "contract": "src/PerpBuybackPool.sol:PerpBuybackPool",
        "label": "_initialized",
        "offset": 0,
        "slot": "0",
        "type": "t_uint8"
      },
      {
        "astId": 350,
        "contract": "src/PerpBuybackPool.sol:PerpBuybackPool",
        "label": "_initializing",
        "offset": 1,
        "slot": "0",
        "type": "t_bool"
      },
      {
        "astId": 985,
        "contract": "src/PerpBuybackPool.sol:PerpBuybackPool",
        "label": "__gap",
        "offset": 0,
        "slot": "1",
        "type": "t_array(t_uint256)50_storage"
      },
      {
        "astId": 219,
        "contract": "src/PerpBuybackPool.sol:PerpBuybackPool",
        "label": "_owner",
        "offset": 0,
        "slot": "51",
        "type": "t_address"
      },
      {
        "astId": 339,
        "contract": "src/PerpBuybackPool.sol:PerpBuybackPool",
        "label": "__gap",
        "offset": 0,
        "slot": "52",
        "type": "t_array(t_uint256)49_storage"
      },
      {
        "astId": 128,
        "contract": "src/PerpBuybackPool.sol:PerpBuybackPool",
        "label": "_pendingOwner",
        "offset": 0,
        "slot": "101",
        "type": "t_address"
      },
      {
        "astId": 207,
        "contract": "src/PerpBuybackPool.sol:PerpBuybackPool",
        "label": "__gap",
        "offset": 0,
        "slot": "102",
        "type": "t_array(t_uint256)49_storage"
      },
      {
        "astId": 4379,
        "contract": "src/PerpBuybackPool.sol:PerpBuybackPool",
        "label": "_perp",
        "offset": 0,
        "slot": "151",
        "type": "t_address"
      },
      {
        "astId": 4381,
        "contract": "src/PerpBuybackPool.sol:PerpBuybackPool",
        "label": "_usdc",
        "offset": 0,
        "slot": "152",
        "type": "t_address"
      },
      {
        "astId": 4383,
        "contract": "src/PerpBuybackPool.sol:PerpBuybackPool",
        "label": "_perpBuyBack",
        "offset": 0,
        "slot": "153",
        "type": "t_address"
      },
      {
        "astId": 4385,
        "contract": "src/PerpBuybackPool.sol:PerpBuybackPool",
        "label": "_perpChainlinkAggregator",
        "offset": 0,
        "slot": "154",
        "type": "t_address"
      }
    ],
    "types": {
      "t_address": {
        "encoding": "inplace",
        "label": "address",
        "numberOfBytes": "20"
      },
      "t_array(t_uint256)49_storage": {
        "base": "t_uint256",
        "encoding": "inplace",
        "label": "uint256[49]",
        "numberOfBytes": "1568"
      },
      "t_array(t_uint256)50_storage": {
        "base": "t_uint256",
        "encoding": "inplace",
        "label": "uint256[50]",
        "numberOfBytes": "1600"
      },
      "t_bool": {
        "encoding": "inplace",
        "label": "bool",
        "numberOfBytes": "1"
      },
      "t_uint256": {
        "encoding": "inplace",
        "label": "uint256",
        "numberOfBytes": "32"
      },
      "t_uint8": {
        "encoding": "inplace",
        "label": "uint8",
        "numberOfBytes": "1"
      }
    }
  }
}