{
  "address": "0xF0F054CA056d072511b48A8259cc5801cFB6FbcC",
  "abi": [
    {
      "anonymous": false,
      "inputs": [
        {
          "indexed": false,
          "internalType": "uint8",
          "name": "version",
          "type": "uint8"
        }
      ],
      "name": "Initialized",
      "type": "event"
    },
    {
      "anonymous": false,
      "inputs": [
        {
          "indexed": true,
          "internalType": "address",
          "name": "previousOwner",
          "type": "address"
        },
        {
          "indexed": true,
          "internalType": "address",
          "name": "newOwner",
          "type": "address"
        }
      ],
      "name": "OwnershipTransferStarted",
      "type": "event"
    },
    {
      "anonymous": false,
      "inputs": [
        {
          "indexed": true,
          "internalType": "address",
          "name": "previousOwner",
          "type": "address"
        },
        {
          "indexed": true,
          "internalType": "address",
          "name": "newOwner",
          "type": "address"
        }
      ],
      "name": "OwnershipTransferred",
      "type": "event"
    },
    {
      "inputs": [],
      "name": "PERP_PRICE_FEED_HEARTBEAT",
      "outputs": [
        {
          "internalType": "uint256",
          "name": "",
          "type": "uint256"
        }
      ],
      "stateMutability": "view",
      "type": "function"
    },
    {
      "inputs": [],
      "name": "acceptOwnership",
      "outputs": [],
      "stateMutability": "nonpayable",
      "type": "function"
    },
    {
      "inputs": [],
      "name": "getPerp",
      "outputs": [
        {
          "internalType": "address",
          "name": "",
          "type": "address"
        }
      ],
      "stateMutability": "view",
      "type": "function"
    },
    {
      "inputs": [],
      "name": "getPerpBuyback",
      "outputs": [
        {
          "internalType": "address",
          "name": "",
          "type": "address"
        }
      ],
      "stateMutability": "view",
      "type": "function"
    },
    {
      "inputs": [],
      "name": "getPerpChainlinkAggregator",
      "outputs": [
        {
          "internalType": "address",
          "name": "",
          "type": "address"
        }
      ],
      "stateMutability": "view",
      "type": "function"
    },
    {
      "inputs": [],
      "name": "getUsdc",
      "outputs": [
        {
          "internalType": "address",
          "name": "",
          "type": "address"
        }
      ],
      "stateMutability": "view",
      "type": "function"
    },
    {
      "inputs": [
        {
          "internalType": "address",
          "name": "usdcArg",
          "type": "address"
        },
        {
          "internalType": "address",
          "name": "perpArg",
          "type": "address"
        },
        {
          "internalType": "address",
          "name": "perpChainlinkAggregatorArg",
          "type": "address"
        }
      ],
      "name": "initialize",
      "outputs": [],
      "stateMutability": "nonpayable",
      "type": "function"
    },
    {
      "inputs": [],
      "name": "owner",
      "outputs": [
        {
          "internalType": "address",
          "name": "",
          "type": "address"
        }
      ],
      "stateMutability": "view",
      "type": "function"
    },
    {
      "inputs": [],
      "name": "pendingOwner",
      "outputs": [
        {
          "internalType": "address",
          "name": "",
          "type": "address"
        }
      ],
      "stateMutability": "view",
      "type": "function"
    },
    {
      "inputs": [],
      "name": "renounceOwnership",
      "outputs": [],
      "stateMutability": "nonpayable",
      "type": "function"
    },
    {
      "inputs": [
        {
          "internalType": "address",
          "name": "perpBuybackArg",
          "type": "address"
        }
      ],
      "name": "setPerpBuyback",
      "outputs": [],
      "stateMutability": "nonpayable",
      "type": "function"
    },
    {
      "inputs": [
        {
          "internalType": "uint256",
          "name": "usdcAmount",
          "type": "uint256"
        }
      ],
      "name": "swap",
      "outputs": [
        {
          "internalType": "uint256",
          "name": "",
          "type": "uint256"
        }
      ],
      "stateMutability": "nonpayable",
      "type": "function"
    },
    {
      "inputs": [
        {
          "internalType": "address",
          "name": "newOwner",
          "type": "address"
        }
      ],
      "name": "transferOwnership",
      "outputs": [],
      "stateMutability": "nonpayable",
      "type": "function"
    },
    {
      "inputs": [
        {
          "internalType": "address",
          "name": "token",
          "type": "address"
        }
      ],
      "name": "withdrawAllToken",
      "outputs": [],
      "stateMutability": "nonpayable",
      "type": "function"
    },
    {
      "inputs": [
        {
          "internalType": "address",
          "name": "token",
          "type": "address"
        },
        {
          "internalType": "uint256",
          "name": "tokenAmount",
          "type": "uint256"
        }
      ],
      "name": "withdrawToken",
      "outputs": [],
      "stateMutability": "nonpayable",
      "type": "function"
    }
  ],
  "transactionHash": "0x99d5565aea934bacdb3c0d6ef74492911c699d1df8330f9b53899ec75ce993dd",
  "args": [],
  "numDeployments": 3,
  "solcInputHash": "0e58101d5c9cfb59c437e214f26bbd6b",
  "bytecode": "0x608060405234801561001057600080fd5b50610f55806100206000396000f3fe608060405234801561001057600080fd5b50600436106100d55760003560e01c806394b918de1161008757806394b918de146101515780639e281a9814610164578063ae4dd0fc14610177578063c0c53b8b1461018a578063df03a7291461019d578063e30c3978146101b0578063f0eb5965146101c1578063f2fde38b146101d257600080fd5b80630dee14f8146100da57806311573f4b146100fd57806312f3fe761461010e57806317b5efff1461011f578063715018a61461013757806379ba5097146101415780638da5cb5b14610149575b600080fd5b6097546001600160a01b03165b6040516100f49190610ba7565b60405180910390f35b6099546001600160a01b03166100e7565b6098546001600160a01b03166100e7565b6101296201518081565b6040519081526020016100f4565b61013f6101e5565b005b61013f6101f9565b6100e7610278565b61012961015f366004610bbb565b610287565b61013f610172366004610bf0565b610621565b61013f610185366004610c1a565b6106ad565b61013f610198366004610c3c565b610761565b61013f6101ab366004610c1a565b610995565b6065546001600160a01b03166100e7565b609a546001600160a01b03166100e7565b61013f6101e0366004610c1a565b610a09565b6101ed610a6f565b6101f76000610ace565b565b60655433906001600160a01b0316811461026c5760405162461bcd60e51b815260206004820152602960248201527f4f776e61626c6532537465703a2063616c6c6572206973206e6f7420746865206044820152683732bb9037bbb732b960b91b60648201526084015b60405180910390fd5b61027581610ace565b50565b6033546001600160a01b031690565b6099546000906001600160a01b03163381146102cf5760405162461bcd60e51b81526020600482015260076024820152662821282fa7a82160c91b6044820152606401610263565b609a546040805163313ce56760e01b815290516000926001600160a01b03169163313ce5679160048083019260209291908290030181865afa158015610319573d6000803e3d6000fd5b505050506040513d601f19601f8201168201806040525081019061033d9190610c7f565b9050600080609a60009054906101000a90046001600160a01b03166001600160a01b031663feaf968c6040518163ffffffff1660e01b815260040160a060405180830381865afa158015610395573d6000803e3d6000fd5b505050506040513d601f19601f820116820180604052508101906103b99190610cbc565b5093505092505062015180816103cf9190610d22565b4211156104075760405162461bcd60e51b815260206004820152600660248201526505042505f53560d41b6044820152606401610263565b600082136104415760405162461bcd60e51b81526020600482015260076024820152662821282fa7a4ad60c91b6044820152606401610263565b60008261044f85600c610d3b565b61045a90600a610e38565b6104649089610e47565b61046e9190610e5e565b6097546040516370a0823160e01b81529192506000916001600160a01b03909116906370a08231906104a4903090600401610ba7565b602060405180830381865afa1580156104c1573d6000803e3d6000fd5b505050506040513d601f19601f820116820180604052508101906104e59190610e80565b9050808211156105215760405162461bcd60e51b81526020600482015260076024820152665042505f50424960c81b6044820152606401610263565b6098546040516323b872dd60e01b81526001600160a01b038881166004830152306024830152604482018b9052909116906323b872dd906064016020604051808303816000875af115801561057a573d6000803e3d6000fd5b505050506040513d601f19601f8201168201806040525081019061059e9190610e99565b5060975460405163a9059cbb60e01b81526001600160a01b039091169063a9059cbb906105d19089908690600401610ebb565b6020604051808303816000875af11580156105f0573d6000803e3d6000fd5b505050506040513d601f19601f820116820180604052508101906106149190610e99565b5090979650505050505050565b610629610a6f565b6000610633610278565b60405163a9059cbb60e01b81529091506001600160a01b0384169063a9059cbb906106649084908690600401610ebb565b6020604051808303816000875af1158015610683573d6000803e3d6000fd5b505050506040513d601f19601f820116820180604052508101906106a79190610e99565b50505050565b6106b5610a6f565b60006106bf610278565b90506000826001600160a01b03166370a08231306040518263ffffffff1660e01b81526004016106ef9190610ba7565b602060405180830381865afa15801561070c573d6000803e3d6000fd5b505050506040513d601f19601f820116820180604052508101906107309190610e80565b60405163a9059cbb60e01b81529091506001600160a01b0384169063a9059cbb906106649085908590600401610ebb565b600054610100900460ff16158080156107815750600054600160ff909116105b806107a2575061079030610ae7565b1580156107a2575060005460ff166001145b6108055760405162461bcd60e51b815260206004820152602e60248201527f496e697469616c697a61626c653a20636f6e747261637420697320616c72656160448201526d191e481a5b9a5d1a585b1a5e995960921b6064820152608401610263565b6000805460ff191660011790558015610828576000805461ff0019166101001790555b61083a846001600160a01b0316610ae7565b6108715760405162461bcd60e51b81526020600482015260086024820152675042505f55494e4360c01b6044820152606401610263565b610883836001600160a01b0316610ae7565b6108ba5760405162461bcd60e51b81526020600482015260086024820152675042505f50494e4360c01b6044820152606401610263565b6108cc826001600160a01b0316610ae7565b6109055760405162461bcd60e51b815260206004820152600a6024820152695042505f504341494e4360b01b6044820152606401610263565b609780546001600160a01b038086166001600160a01b03199283161790925560988054878416908316179055609a80549285169290911691909117905561094a610af6565b80156106a7576000805461ff0019169055604051600181527f7f26b83ff96e1f2b6a682f133852f6798a09c465da95921460cefb38474024989060200160405180910390a150505050565b61099d610a6f565b6109af816001600160a01b0316610ae7565b6109e75760405162461bcd60e51b81526020600482015260096024820152685042505f5042494e4360b81b6044820152606401610263565b609980546001600160a01b0319166001600160a01b0392909216919091179055565b610a11610a6f565b606580546001600160a01b0319166001600160a01b038316908117909155610a37610278565b6001600160a01b03167f38d16b8cac22d99fc7c124b9cd0de2d3fa1faef420bfe791d8c362d765e2270060405160405180910390a350565b33610a78610278565b6001600160a01b0316146101f75760405162461bcd60e51b815260206004820181905260248201527f4f776e61626c653a2063616c6c6572206973206e6f7420746865206f776e65726044820152606401610263565b606580546001600160a01b031916905561027581610b25565b6001600160a01b03163b151590565b600054610100900460ff16610b1d5760405162461bcd60e51b815260040161026390610ed4565b6101f7610b77565b603380546001600160a01b038381166001600160a01b0319831681179093556040519116919082907f8be0079c531659141344cd1fd0a4f28419497f9722a3daafe3b4186f6b6457e090600090a35050565b600054610100900460ff16610b9e5760405162461bcd60e51b815260040161026390610ed4565b6101f733610ace565b6001600160a01b0391909116815260200190565b600060208284031215610bcd57600080fd5b5035919050565b80356001600160a01b0381168114610beb57600080fd5b919050565b60008060408385031215610c0357600080fd5b610c0c83610bd4565b946020939093013593505050565b600060208284031215610c2c57600080fd5b610c3582610bd4565b9392505050565b600080600060608486031215610c5157600080fd5b610c5a84610bd4565b9250610c6860208501610bd4565b9150610c7660408501610bd4565b90509250925092565b600060208284031215610c9157600080fd5b815160ff81168114610c3557600080fd5b805169ffffffffffffffffffff81168114610beb57600080fd5b600080600080600060a08688031215610cd457600080fd5b610cdd86610ca2565b9450602086015193506040860151925060608601519150610d0060808701610ca2565b90509295509295909350565b634e487b7160e01b600052601160045260246000fd5b80820180821115610d3557610d35610d0c565b92915050565b60ff8181168382160190811115610d3557610d35610d0c565b600181815b80851115610d8f578160001904821115610d7557610d75610d0c565b80851615610d8257918102915b93841c9390800290610d59565b509250929050565b600082610da657506001610d35565b81610db357506000610d35565b8160018114610dc95760028114610dd357610def565b6001915050610d35565b60ff841115610de457610de4610d0c565b50506001821b610d35565b5060208310610133831016604e8410600b8410161715610e12575081810a610d35565b610e1c8383610d54565b8060001904821115610e3057610e30610d0c565b029392505050565b6000610c3560ff841683610d97565b8082028115828204841417610d3557610d35610d0c565b600082610e7b57634e487b7160e01b600052601260045260246000fd5b500490565b600060208284031215610e9257600080fd5b5051919050565b600060208284031215610eab57600080fd5b81518015158114610c3557600080fd5b6001600160a01b03929092168252602082015260400190565b6020808252602b908201527f496e697469616c697a61626c653a20636f6e7472616374206973206e6f74206960408201526a6e697469616c697a696e6760a81b60608201526080019056fea26469706673582212201e2ca0cd991cfd7871efeb71e82ac7d1cb0f616f0eae1313a25edd2172fde9f564736f6c63430008110033",
  "devdoc": {
    "kind": "dev",
    "methods": {
      "acceptOwnership()": {
        "details": "The new owner accepts the ownership transfer."
      },
      "owner()": {
        "details": "Returns the address of the current owner."
      },
      "pendingOwner()": {
        "details": "Returns the address of the pending owner."
      },
      "renounceOwnership()": {
        "details": "Leaves the contract without owner. It will not be possible to call `onlyOwner` functions anymore. Can only be called by the current owner. NOTE: Renouncing ownership will leave the contract without an owner, thereby removing any functionality that is only available to the owner."
      },
      "transferOwnership(address)": {
        "details": "Starts the ownership transfer of the contract to a new account. Replaces the pending transfer if there is one. Can only be called by the current owner."
      }
    },
    "version": 1
  },
  "userdoc": {
    "kind": "user",
    "methods": {},
    "version": 1
  },
  "storageLayout": {
    "storage": [
      {
        "astId": 347,
        "contract": "src/PerpBuybackPool.sol:PerpBuybackPool",
        "label": "_initialized",
        "offset": 0,
        "slot": "0",
        "type": "t_uint8"
      },
      {
        "astId": 350,
        "contract": "src/PerpBuybackPool.sol:PerpBuybackPool",
        "label": "_initializing",
        "offset": 1,
        "slot": "0",
        "type": "t_bool"
      },
      {
        "astId": 985,
        "contract": "src/PerpBuybackPool.sol:PerpBuybackPool",
        "label": "__gap",
        "offset": 0,
        "slot": "1",
        "type": "t_array(t_uint256)50_storage"
      },
      {
        "astId": 219,
        "contract": "src/PerpBuybackPool.sol:PerpBuybackPool",
        "label": "_owner",
        "offset": 0,
        "slot": "51",
        "type": "t_address"
      },
      {
        "astId": 339,
        "contract": "src/PerpBuybackPool.sol:PerpBuybackPool",
        "label": "__gap",
        "offset": 0,
        "slot": "52",
        "type": "t_array(t_uint256)49_storage"
      },
      {
        "astId": 128,
        "contract": "src/PerpBuybackPool.sol:PerpBuybackPool",
        "label": "_pendingOwner",
        "offset": 0,
        "slot": "101",
        "type": "t_address"
      },
      {
        "astId": 207,
        "contract": "src/PerpBuybackPool.sol:PerpBuybackPool",
        "label": "__gap",
        "offset": 0,
        "slot": "102",
        "type": "t_array(t_uint256)49_storage"
      },
      {
        "astId": 4592,
        "contract": "src/PerpBuybackPool.sol:PerpBuybackPool",
        "label": "_perp",
        "offset": 0,
        "slot": "151",
        "type": "t_address"
      },
      {
        "astId": 4594,
        "contract": "src/PerpBuybackPool.sol:PerpBuybackPool",
        "label": "_usdc",
        "offset": 0,
        "slot": "152",
        "type": "t_address"
      },
      {
        "astId": 4596,
        "contract": "src/PerpBuybackPool.sol:PerpBuybackPool",
        "label": "_perpBuyBack",
        "offset": 0,
        "slot": "153",
        "type": "t_address"
      },
      {
        "astId": 4598,
        "contract": "src/PerpBuybackPool.sol:PerpBuybackPool",
        "label": "_perpChainlinkAggregator",
        "offset": 0,
        "slot": "154",
        "type": "t_address"
      }
    ],
    "types": {
      "t_address": {
        "encoding": "inplace",
        "label": "address",
        "numberOfBytes": "20"
      },
      "t_array(t_uint256)49_storage": {
        "base": "t_uint256",
        "encoding": "inplace",
        "label": "uint256[49]",
        "numberOfBytes": "1568"
      },
      "t_array(t_uint256)50_storage": {
        "base": "t_uint256",
        "encoding": "inplace",
        "label": "uint256[50]",
        "numberOfBytes": "1600"
      },
      "t_bool": {
        "encoding": "inplace",
        "label": "bool",
        "numberOfBytes": "1"
      },
      "t_uint256": {
        "encoding": "inplace",
        "label": "uint256",
        "numberOfBytes": "32"
      },
      "t_uint8": {
        "encoding": "inplace",
        "label": "uint8",
        "numberOfBytes": "1"
      }
    }
  }
}