{
  "address": "0x3B7fd1CE6f8369E942c7e5aAfaC55646015eF124",
  "abi": [
    {
      "anonymous": false,
      "inputs": [
        {
          "indexed": false,
          "internalType": "uint8",
          "name": "version",
          "type": "uint8"
        }
      ],
      "name": "Initialized",
      "type": "event"
    },
    {
      "anonymous": false,
      "inputs": [
        {
          "indexed": true,
          "internalType": "address",
          "name": "previousOwner",
          "type": "address"
        },
        {
          "indexed": true,
          "internalType": "address",
          "name": "newOwner",
          "type": "address"
        }
      ],
      "name": "OwnershipTransferStarted",
      "type": "event"
    },
    {
      "anonymous": false,
      "inputs": [
        {
          "indexed": true,
          "internalType": "address",
          "name": "previousOwner",
          "type": "address"
        },
        {
          "indexed": true,
          "internalType": "address",
          "name": "newOwner",
          "type": "address"
        }
      ],
      "name": "OwnershipTransferred",
      "type": "event"
    },
    {
      "inputs": [],
      "name": "acceptOwnership",
      "outputs": [],
      "stateMutability": "nonpayable",
      "type": "function"
    },
    {
      "inputs": [],
      "name": "getPerp",
      "outputs": [
        {
          "internalType": "address",
          "name": "",
          "type": "address"
        }
      ],
      "stateMutability": "view",
      "type": "function"
    },
    {
      "inputs": [],
      "name": "getPerpBuyback",
      "outputs": [
        {
          "internalType": "address",
          "name": "",
          "type": "address"
        }
      ],
      "stateMutability": "view",
      "type": "function"
    },
    {
      "inputs": [],
      "name": "getPerpChainlinkAggregator",
      "outputs": [
        {
          "internalType": "address",
          "name": "",
          "type": "address"
        }
      ],
      "stateMutability": "view",
      "type": "function"
    },
    {
      "inputs": [],
      "name": "getUsdc",
      "outputs": [
        {
          "internalType": "address",
          "name": "",
          "type": "address"
        }
      ],
      "stateMutability": "view",
      "type": "function"
    },
    {
      "inputs": [
        {
          "internalType": "address",
          "name": "usdcArg",
          "type": "address"
        },
        {
          "internalType": "address",
          "name": "perpArg",
          "type": "address"
        },
        {
          "internalType": "address",
          "name": "perpChainlinkAggregatorArg",
          "type": "address"
        }
      ],
      "name": "initialize",
      "outputs": [],
      "stateMutability": "nonpayable",
      "type": "function"
    },
    {
      "inputs": [],
      "name": "owner",
      "outputs": [
        {
          "internalType": "address",
          "name": "",
          "type": "address"
        }
      ],
      "stateMutability": "view",
      "type": "function"
    },
    {
      "inputs": [],
      "name": "pendingOwner",
      "outputs": [
        {
          "internalType": "address",
          "name": "",
          "type": "address"
        }
      ],
      "stateMutability": "view",
      "type": "function"
    },
    {
      "inputs": [],
      "name": "renounceOwnership",
      "outputs": [],
      "stateMutability": "nonpayable",
      "type": "function"
    },
    {
      "inputs": [
        {
          "internalType": "address",
          "name": "perpBuybackArg",
          "type": "address"
        }
      ],
      "name": "setPerpBuyback",
      "outputs": [],
      "stateMutability": "nonpayable",
      "type": "function"
    },
    {
      "inputs": [
        {
          "internalType": "uint256",
          "name": "usdcAmount",
          "type": "uint256"
        }
      ],
      "name": "swap",
      "outputs": [
        {
          "internalType": "uint256",
          "name": "",
          "type": "uint256"
        }
      ],
      "stateMutability": "nonpayable",
      "type": "function"
    },
    {
      "inputs": [
        {
          "internalType": "address",
          "name": "newOwner",
          "type": "address"
        }
      ],
      "name": "transferOwnership",
      "outputs": [],
      "stateMutability": "nonpayable",
      "type": "function"
    },
    {
      "inputs": [
        {
          "internalType": "address",
          "name": "token",
          "type": "address"
        }
      ],
      "name": "withdrawAllToken",
      "outputs": [],
      "stateMutability": "nonpayable",
      "type": "function"
    },
    {
      "inputs": [
        {
          "internalType": "address",
          "name": "token",
          "type": "address"
        },
        {
          "internalType": "uint256",
          "name": "tokenAmount",
          "type": "uint256"
        }
      ],
      "name": "withdrawToken",
      "outputs": [],
      "stateMutability": "nonpayable",
      "type": "function"
    }
  ],
  "transactionHash": "0x2c56023017b36798b84dc6dcfffbd4c682d08cd41e0254d5ef6c93bf17e61d55",
  "args": [],
  "numDeployments": 2,
  "solcInputHash": "1e1471b200db5ff7366bc717a6d611d3",
  "bytecode": "0x608060405234801561001057600080fd5b50610e61806100206000396000f3fe608060405234801561001057600080fd5b50600436106100ca5760003560e01c80639e281a981161007c5780639e281a981461014f578063ae4dd0fc14610162578063c0c53b8b14610175578063df03a72914610188578063e30c39781461019b578063f0eb5965146101ac578063f2fde38b146101bd57600080fd5b80630dee14f8146100cf57806311573f4b146100f257806312f3fe7614610103578063715018a61461011457806379ba50971461011e5780638da5cb5b1461012657806394b918de1461012e575b600080fd5b6097546001600160a01b03165b6040516100e99190610b4d565b60405180910390f35b6099546001600160a01b03166100dc565b6098546001600160a01b03166100dc565b61011c6101d0565b005b61011c6101e4565b6100dc610263565b61014161013c366004610b61565b610272565b6040519081526020016100e9565b61011c61015d366004610b96565b6105c7565b61011c610170366004610bc0565b610653565b61011c610183366004610be2565b610707565b61011c610196366004610bc0565b61093b565b6065546001600160a01b03166100dc565b609a546001600160a01b03166100dc565b61011c6101cb366004610bc0565b6109af565b6101d8610a15565b6101e26000610a74565b565b60655433906001600160a01b031681146102575760405162461bcd60e51b815260206004820152602960248201527f4f776e61626c6532537465703a2063616c6c6572206973206e6f7420746865206044820152683732bb9037bbb732b960b91b60648201526084015b60405180910390fd5b61026081610a74565b50565b6033546001600160a01b031690565b6099546000906001600160a01b03163381146102ba5760405162461bcd60e51b81526020600482015260076024820152662821282fa7a82160c91b604482015260640161024e565b609a546040805163313ce56760e01b815290516000926001600160a01b03169163313ce5679160048083019260209291908290030181865afa158015610304573d6000803e3d6000fd5b505050506040513d601f19601f820116820180604052508101906103289190610c25565b90506000609a60009054906101000a90046001600160a01b03166001600160a01b03166350d25bcd6040518163ffffffff1660e01b8152600401602060405180830381865afa15801561037f573d6000803e3d6000fd5b505050506040513d601f19601f820116820180604052508101906103a39190610c48565b9050600081136103df5760405162461bcd60e51b81526020600482015260076024820152662821282fa7a4ad60c91b604482015260640161024e565b60006103ec83600a610d5d565b6103f69083610d6c565b905060008161040a8864e8d4a51000610d8e565b6104149190610d6c565b6097546040516370a0823160e01b81529192506000916001600160a01b03909116906370a082319061044a903090600401610b4d565b602060405180830381865afa158015610467573d6000803e3d6000fd5b505050506040513d601f19601f8201168201806040525081019061048b9190610c48565b9050808211156104c75760405162461bcd60e51b81526020600482015260076024820152665042505f50424960c81b604482015260640161024e565b6098546040516323b872dd60e01b81526001600160a01b038881166004830152306024830152604482018b9052909116906323b872dd906064016020604051808303816000875af1158015610520573d6000803e3d6000fd5b505050506040513d601f19601f820116820180604052508101906105449190610da5565b5060975460405163a9059cbb60e01b81526001600160a01b039091169063a9059cbb906105779089908690600401610dc7565b6020604051808303816000875af1158015610596573d6000803e3d6000fd5b505050506040513d601f19601f820116820180604052508101906105ba9190610da5565b5090979650505050505050565b6105cf610a15565b60006105d9610263565b60405163a9059cbb60e01b81529091506001600160a01b0384169063a9059cbb9061060a9084908690600401610dc7565b6020604051808303816000875af1158015610629573d6000803e3d6000fd5b505050506040513d601f19601f8201168201806040525081019061064d9190610da5565b50505050565b61065b610a15565b6000610665610263565b90506000826001600160a01b03166370a08231306040518263ffffffff1660e01b81526004016106959190610b4d565b602060405180830381865afa1580156106b2573d6000803e3d6000fd5b505050506040513d601f19601f820116820180604052508101906106d69190610c48565b60405163a9059cbb60e01b81529091506001600160a01b0384169063a9059cbb9061060a9085908590600401610dc7565b600054610100900460ff16158080156107275750600054600160ff909116105b80610748575061073630610a8d565b158015610748575060005460ff166001145b6107ab5760405162461bcd60e51b815260206004820152602e60248201527f496e697469616c697a61626c653a20636f6e747261637420697320616c72656160448201526d191e481a5b9a5d1a585b1a5e995960921b606482015260840161024e565b6000805460ff1916600117905580156107ce576000805461ff0019166101001790555b6107e0846001600160a01b0316610a8d565b6108175760405162461bcd60e51b81526020600482015260086024820152675042505f55494e4360c01b604482015260640161024e565b610829836001600160a01b0316610a8d565b6108605760405162461bcd60e51b81526020600482015260086024820152675042505f50494e4360c01b604482015260640161024e565b610872826001600160a01b0316610a8d565b6108ab5760405162461bcd60e51b815260206004820152600a6024820152695042505f504341494e4360b01b604482015260640161024e565b609780546001600160a01b038086166001600160a01b03199283161790925560988054878416908316179055609a8054928516929091169190911790556108f0610a9c565b801561064d576000805461ff0019169055604051600181527f7f26b83ff96e1f2b6a682f133852f6798a09c465da95921460cefb38474024989060200160405180910390a150505050565b610943610a15565b610955816001600160a01b0316610a8d565b61098d5760405162461bcd60e51b81526020600482015260096024820152685042505f5042494e4360b81b604482015260640161024e565b609980546001600160a01b0319166001600160a01b0392909216919091179055565b6109b7610a15565b606580546001600160a01b0319166001600160a01b0383169081179091556109dd610263565b6001600160a01b03167f38d16b8cac22d99fc7c124b9cd0de2d3fa1faef420bfe791d8c362d765e2270060405160405180910390a350565b33610a1e610263565b6001600160a01b0316146101e25760405162461bcd60e51b815260206004820181905260248201527f4f776e61626c653a2063616c6c6572206973206e6f7420746865206f776e6572604482015260640161024e565b606580546001600160a01b031916905561026081610acb565b6001600160a01b03163b151590565b600054610100900460ff16610ac35760405162461bcd60e51b815260040161024e90610de0565b6101e2610b1d565b603380546001600160a01b038381166001600160a01b0319831681179093556040519116919082907f8be0079c531659141344cd1fd0a4f28419497f9722a3daafe3b4186f6b6457e090600090a35050565b600054610100900460ff16610b445760405162461bcd60e51b815260040161024e90610de0565b6101e233610a74565b6001600160a01b0391909116815260200190565b600060208284031215610b7357600080fd5b5035919050565b80356001600160a01b0381168114610b9157600080fd5b919050565b60008060408385031215610ba957600080fd5b610bb283610b7a565b946020939093013593505050565b600060208284031215610bd257600080fd5b610bdb82610b7a565b9392505050565b600080600060608486031215610bf757600080fd5b610c0084610b7a565b9250610c0e60208501610b7a565b9150610c1c60408501610b7a565b90509250925092565b600060208284031215610c3757600080fd5b815160ff81168114610bdb57600080fd5b600060208284031215610c5a57600080fd5b5051919050565b634e487b7160e01b600052601160045260246000fd5b600181815b80851115610cb2578160001904821115610c9857610c98610c61565b80851615610ca557918102915b93841c9390800290610c7c565b509250929050565b600082610cc957506001610d57565b81610cd657506000610d57565b8160018114610cec5760028114610cf657610d12565b6001915050610d57565b60ff841115610d0757610d07610c61565b50506001821b610d57565b5060208310610133831016604e8410600b8410161715610d35575081810a610d57565b610d3f8383610c77565b8060001904821115610d5357610d53610c61565b0290505b92915050565b6000610bdb60ff841683610cba565b600082610d8957634e487b7160e01b600052601260045260246000fd5b500490565b8082028115828204841417610d5757610d57610c61565b600060208284031215610db757600080fd5b81518015158114610bdb57600080fd5b6001600160a01b03929092168252602082015260400190565b6020808252602b908201527f496e697469616c697a61626c653a20636f6e7472616374206973206e6f74206960408201526a6e697469616c697a696e6760a81b60608201526080019056fea26469706673582212200f77ada5697c592e7a0d4a05fed6a469c4ec3565d51e5671bfdb5d2d55e6722864736f6c63430008110033",
  "devdoc": {
    "kind": "dev",
    "methods": {
      "acceptOwnership()": {
        "details": "The new owner accepts the ownership transfer."
      },
      "owner()": {
        "details": "Returns the address of the current owner."
      },
      "pendingOwner()": {
        "details": "Returns the address of the pending owner."
      },
      "renounceOwnership()": {
        "details": "Leaves the contract without owner. It will not be possible to call `onlyOwner` functions anymore. Can only be called by the current owner. NOTE: Renouncing ownership will leave the contract without an owner, thereby removing any functionality that is only available to the owner."
      },
      "transferOwnership(address)": {
        "details": "Starts the ownership transfer of the contract to a new account. Replaces the pending transfer if there is one. Can only be called by the current owner."
      }
    },
    "version": 1
  },
  "userdoc": {
    "kind": "user",
    "methods": {},
    "version": 1
  },
  "storageLayout": {
    "storage": [
      {
        "astId": 347,
        "contract": "src/PerpBuybackPool.sol:PerpBuybackPool",
        "label": "_initialized",
        "offset": 0,
        "slot": "0",
        "type": "t_uint8"
      },
      {
        "astId": 350,
        "contract": "src/PerpBuybackPool.sol:PerpBuybackPool",
        "label": "_initializing",
        "offset": 1,
        "slot": "0",
        "type": "t_bool"
      },
      {
        "astId": 985,
        "contract": "src/PerpBuybackPool.sol:PerpBuybackPool",
        "label": "__gap",
        "offset": 0,
        "slot": "1",
        "type": "t_array(t_uint256)50_storage"
      },
      {
        "astId": 219,
        "contract": "src/PerpBuybackPool.sol:PerpBuybackPool",
        "label": "_owner",
        "offset": 0,
        "slot": "51",
        "type": "t_address"
      },
      {
        "astId": 339,
        "contract": "src/PerpBuybackPool.sol:PerpBuybackPool",
        "label": "__gap",
        "offset": 0,
        "slot": "52",
        "type": "t_array(t_uint256)49_storage"
      },
      {
        "astId": 128,
        "contract": "src/PerpBuybackPool.sol:PerpBuybackPool",
        "label": "_pendingOwner",
        "offset": 0,
        "slot": "101",
        "type": "t_address"
      },
      {
        "astId": 207,
        "contract": "src/PerpBuybackPool.sol:PerpBuybackPool",
        "label": "__gap",
        "offset": 0,
        "slot": "102",
        "type": "t_array(t_uint256)49_storage"
      },
      {
        "astId": 4412,
        "contract": "src/PerpBuybackPool.sol:PerpBuybackPool",
        "label": "_perp",
        "offset": 0,
        "slot": "151",
        "type": "t_address"
      },
      {
        "astId": 4414,
        "contract": "src/PerpBuybackPool.sol:PerpBuybackPool",
        "label": "_usdc",
        "offset": 0,
        "slot": "152",
        "type": "t_address"
      },
      {
        "astId": 4416,
        "contract": "src/PerpBuybackPool.sol:PerpBuybackPool",
        "label": "_perpBuyBack",
        "offset": 0,
        "slot": "153",
        "type": "t_address"
      },
      {
        "astId": 4418,
        "contract": "src/PerpBuybackPool.sol:PerpBuybackPool",
        "label": "_perpChainlinkAggregator",
        "offset": 0,
        "slot": "154",
        "type": "t_address"
      }
    ],
    "types": {
      "t_address": {
        "encoding": "inplace",
        "label": "address",
        "numberOfBytes": "20"
      },
      "t_array(t_uint256)49_storage": {
        "base": "t_uint256",
        "encoding": "inplace",
        "label": "uint256[49]",
        "numberOfBytes": "1568"
      },
      "t_array(t_uint256)50_storage": {
        "base": "t_uint256",
        "encoding": "inplace",
        "label": "uint256[50]",
        "numberOfBytes": "1600"
      },
      "t_bool": {
        "encoding": "inplace",
        "label": "bool",
        "numberOfBytes": "1"
      },
      "t_uint256": {
        "encoding": "inplace",
        "label": "uint256",
        "numberOfBytes": "32"
      },
      "t_uint8": {
        "encoding": "inplace",
        "label": "uint8",
        "numberOfBytes": "1"
      }
    }
  }
}