{
  "address": "0xD86cd4d27099C8cA8D82f27d9Cb6027A5a1FD35c",
  "abi": [
    {
      "anonymous": false,
      "inputs": [
        {
          "indexed": false,
          "internalType": "uint256",
          "name": "usdcAmount",
          "type": "uint256"
        },
        {
          "indexed": false,
          "internalType": "uint256",
          "name": "perpAmount",
          "type": "uint256"
        }
      ],
      "name": "BuybackTriggered",
      "type": "event"
    },
    {
      "anonymous": false,
      "inputs": [
        {
          "indexed": false,
          "internalType": "address",
          "name": "user",
          "type": "address"
        },
        {
          "indexed": false,
          "internalType": "uint256",
          "name": "claimPerpAmount",
          "type": "uint256"
        }
      ],
      "name": "Claimed",
      "type": "event"
    },
    {
      "anonymous": false,
      "inputs": [
        {
          "indexed": false,
          "internalType": "uint8",
          "name": "version",
          "type": "uint8"
        }
      ],
      "name": "Initialized",
      "type": "event"
    },
    {
      "anonymous": false,
      "inputs": [
        {
          "indexed": true,
          "internalType": "address",
          "name": "previousOwner",
          "type": "address"
        },
        {
          "indexed": true,
          "internalType": "address",
          "name": "newOwner",
          "type": "address"
        }
      ],
      "name": "OwnershipTransferStarted",
      "type": "event"
    },
    {
      "anonymous": false,
      "inputs": [
        {
          "indexed": true,
          "internalType": "address",
          "name": "previousOwner",
          "type": "address"
        },
        {
          "indexed": true,
          "internalType": "address",
          "name": "newOwner",
          "type": "address"
        }
      ],
      "name": "OwnershipTransferred",
      "type": "event"
    },
    {
      "inputs": [],
      "name": "acceptOwnership",
      "outputs": [],
      "stateMutability": "nonpayable",
      "type": "function"
    },
    {
      "inputs": [],
      "name": "claim",
      "outputs": [],
      "stateMutability": "nonpayable",
      "type": "function"
    },
    {
      "inputs": [],
      "name": "getPerp",
      "outputs": [
        {
          "internalType": "address",
          "name": "",
          "type": "address"
        }
      ],
      "stateMutability": "view",
      "type": "function"
    },
    {
      "inputs": [],
      "name": "getPerpBuybackPool",
      "outputs": [
        {
          "internalType": "address",
          "name": "",
          "type": "address"
        }
      ],
      "stateMutability": "view",
      "type": "function"
    },
    {
      "inputs": [],
      "name": "getRemainingBuybackUsdcAmount",
      "outputs": [
        {
          "internalType": "uint256",
          "name": "",
          "type": "uint256"
        }
      ],
      "stateMutability": "view",
      "type": "function"
    },
    {
      "inputs": [
        {
          "internalType": "address",
          "name": "user",
          "type": "address"
        }
      ],
      "name": "getShares",
      "outputs": [
        {
          "internalType": "uint256",
          "name": "",
          "type": "uint256"
        }
      ],
      "stateMutability": "view",
      "type": "function"
    },
    {
      "inputs": [],
      "name": "getUsdc",
      "outputs": [
        {
          "internalType": "address",
          "name": "",
          "type": "address"
        }
      ],
      "stateMutability": "view",
      "type": "function"
    },
    {
      "inputs": [
        {
          "internalType": "uint256",
          "name": "index",
          "type": "uint256"
        }
      ],
      "name": "getUserByIndex",
      "outputs": [
        {
          "internalType": "address",
          "name": "",
          "type": "address"
        }
      ],
      "stateMutability": "view",
      "type": "function"
    },
    {
      "inputs": [
        {
          "internalType": "address",
          "name": "user",
          "type": "address"
        }
      ],
      "name": "getUserClaimableVePerpAmount",
      "outputs": [
        {
          "internalType": "uint256",
          "name": "",
          "type": "uint256"
        }
      ],
      "stateMutability": "view",
      "type": "function"
    },
    {
      "inputs": [],
      "name": "getUserNum",
      "outputs": [
        {
          "internalType": "uint256",
          "name": "",
          "type": "uint256"
        }
      ],
      "stateMutability": "view",
      "type": "function"
    },
    {
      "inputs": [],
      "name": "getVePerp",
      "outputs": [
        {
          "internalType": "address",
          "name": "",
          "type": "address"
        }
      ],
      "stateMutability": "view",
      "type": "function"
    },
    {
      "inputs": [
        {
          "internalType": "address",
          "name": "usdcArg",
          "type": "address"
        },
        {
          "internalType": "address",
          "name": "perpArg",
          "type": "address"
        },
        {
          "internalType": "address",
          "name": "vePerpArg",
          "type": "address"
        },
        {
          "internalType": "address",
          "name": "perpBuybackPoolArg",
          "type": "address"
        }
      ],
      "name": "initialize",
      "outputs": [],
      "stateMutability": "nonpayable",
      "type": "function"
    },
    {
      "inputs": [],
      "name": "owner",
      "outputs": [
        {
          "internalType": "address",
          "name": "",
          "type": "address"
        }
      ],
      "stateMutability": "view",
      "type": "function"
    },
    {
      "inputs": [],
      "name": "pendingOwner",
      "outputs": [
        {
          "internalType": "address",
          "name": "",
          "type": "address"
        }
      ],
      "stateMutability": "view",
      "type": "function"
    },
    {
      "inputs": [],
      "name": "renounceOwnership",
      "outputs": [],
      "stateMutability": "nonpayable",
      "type": "function"
    },
    {
      "inputs": [],
      "name": "swapInPerpBuybackPool",
      "outputs": [],
      "stateMutability": "nonpayable",
      "type": "function"
    },
    {
      "inputs": [
        {
          "internalType": "address",
          "name": "newOwner",
          "type": "address"
        }
      ],
      "name": "transferOwnership",
      "outputs": [],
      "stateMutability": "nonpayable",
      "type": "function"
    },
    {
      "inputs": [
        {
          "internalType": "address",
          "name": "token",
          "type": "address"
        },
        {
          "internalType": "uint256",
          "name": "tokenAmount",
          "type": "uint256"
        }
      ],
      "name": "withdrawToken",
      "outputs": [],
      "stateMutability": "nonpayable",
      "type": "function"
    }
  ],
  "transactionHash": "0x6595082a51b9554f6854e6a8acde044ff62819b5155510cfb4bc3ccac5c1bf57",
  "args": [],
  "numDeployments": 1,
  "solcInputHash": "a3252a32ee29f8f07603494e1e29c973",
  "bytecode": "0x608060405234801561001057600080fd5b50611551806100206000396000f3fe608060405234801561001057600080fd5b50600436106100f65760003560e01c80638da5cb5b116100925780638da5cb5b1461019d5780639e281a98146101ae578063cdce5206146101c1578063da9012a8146101c9578063e30c3978146101da578063f04da65b146101eb578063f2fde38b146101fe578063f8c8765e14610211578063ff5d32fe1461022457600080fd5b80630dee14f8146100fb57806312f3fe761461011e578063260095f71461012f5780633f23b020146101415780634e71d92d1461015257806354922e241461015c5780636403f1f014610164578063715018a61461018d57806379ba509714610195575b600080fd5b60ca546001600160a01b03165b60405161011591906112f0565b60405180910390f35b60c9546001600160a01b0316610108565b60cd545b604051908152602001610115565b60cc546001600160a01b0316610108565b61015a610237565b005b61015a6104f6565b610133610172366004611320565b6001600160a01b0316600090815260ce602052604090205490565b61015a6107a0565b61015a6107b2565b6065546001600160a01b0316610108565b61015a6101bc36600461133b565b61082c565b61013361092c565b60cb546001600160a01b0316610108565b6097546001600160a01b0316610108565b6101336101f9366004611320565b61093d565b61015a61020c366004611320565b610950565b61015a61021f366004611365565b6109c1565b6101086102323660046113b9565b610efa565b61023f610f10565b3361024b60cf82610f69565b6102875760405162461bcd60e51b815260206004820152600860248201526750425f554e49554d60c01b60448201526064015b60405180910390fd5b60cb546001600160a01b0316600062093a806102a381426113e8565b6102ad919061140a565b90506000826001600160a01b031663adc63589856040518263ffffffff1660e01b81526004016102dd91906112f0565b602060405180830381865afa1580156102fa573d6000803e3d6000fd5b505050506040513d601f19601f8201168201806040525081019061031e9190611421565b905061032e62093a80601a61140a565b610338908361143a565b81116103725760405162461bcd60e51b815260206004820152600960248201526850425f45544c32365760b81b604482015260640161027e565b6001600160a01b038416600090815260ce6020526040902054806103c35760405162461bcd60e51b815260206004820152600860248201526728212faaa1a0a4ad60c11b604482015260640161027e565b6001600160a01b03808616600090815260ce60205260408082209190915560ca54905163095ea7b360e01b815291169063095ea7b390610409908790859060040161144d565b6020604051808303816000875af1158015610428573d6000803e3d6000fd5b505050506040513d601f19601f8201168201806040525081019061044c9190611466565b50604051631d23139f60e11b81526001600160a01b03851690633a46273e9061047b908890859060040161144d565b600060405180830381600087803b15801561049557600080fd5b505af11580156104a9573d6000803e3d6000fd5b505050507fd8138f8a3f377c5259ca548e70e4c2de94f129f5a11036a15b69513cba2b426a85826040516104de92919061144d565b60405180910390a150505050506104f460018055565b565b6104fe610f10565b600060cd541161053c5760405162461bcd60e51b815260206004820152600960248201526828212fa9212aa0a4ad60b91b604482015260640161027e565b60c9546040516370a0823160e01b81526000916001600160a01b0316906370a082319061056d9030906004016112f0565b602060405180830381865afa15801561058a573d6000803e3d6000fd5b505050506040513d601f19601f820116820180604052508101906105ae9190611421565b9050600060cd5482116105c157816105c5565b60cd545b90508060cd60008282546105d99190611488565b909155505060cc5460c95460405163095ea7b360e01b81526001600160a01b03928316929091169063095ea7b390610617908490869060040161144d565b6020604051808303816000875af1158015610636573d6000803e3d6000fd5b505050506040513d601f19601f8201168201806040525081019061065a9190611466565b61066357600080fd5b604051634a5c8c6f60e11b8152600481018390526000906001600160a01b038316906394b918de906024016020604051808303816000875af11580156106ad573d6000803e3d6000fd5b505050506040513d601f19601f820116820180604052508101906106d19190611421565b905060006106df60cf610f8b565b905060005b818160ff1610156107695760008061070060cf60ff8516610f96565b90925090506000620f4240610715838861140a565b61071f91906113e8565b6001600160a01b038416600090815260ce602052604081208054929350839290919061074c90849061143a565b9250508190555050505080806107619061149b565b9150506106e4565b5060408051858152602081018490527f24894234be47e9feac48ae0362f841cb41e53ca9365b40463ebe55dc62331cff91016104de565b6107a8610fb2565b6104f4600061100c565b60975433906001600160a01b031681146108205760405162461bcd60e51b815260206004820152602960248201527f4f776e61626c6532537465703a2063616c6c6572206973206e6f7420746865206044820152683732bb9037bbb732b960b91b606482015260840161027e565b6108298161100c565b50565b610834610fb2565b60c9546001600160a01b038381169116148061085d575060ca546001600160a01b038381169116145b1561089e5760cd541561089e5760405162461bcd60e51b815260206004820152600960248201526828212fa9212aa0a72d60b91b604482015260640161027e565b60006108b26065546001600160a01b031690565b60405163a9059cbb60e01b81529091506001600160a01b0384169063a9059cbb906108e3908490869060040161144d565b6020604051808303816000875af1158015610902573d6000803e3d6000fd5b505050506040513d601f19601f820116820180604052508101906109269190611466565b50505050565b600061093860cf610f8b565b905090565b600061094a60cf83611025565b92915050565b610958610fb2565b609780546001600160a01b0383166001600160a01b031990911681179091556109896065546001600160a01b031690565b6001600160a01b03167f38d16b8cac22d99fc7c124b9cd0de2d3fa1faef420bfe791d8c362d765e2270060405160405180910390a350565b600054610100900460ff16158080156109e15750600054600160ff909116105b80610a0257506109f03061103a565b158015610a02575060005460ff166001145b610a655760405162461bcd60e51b815260206004820152602e60248201527f496e697469616c697a61626c653a20636f6e747261637420697320616c72656160448201526d191e481a5b9a5d1a585b1a5e995960921b606482015260840161027e565b6000805460ff191660011790558015610a88576000805461ff0019166101001790555b610a9a856001600160a01b031661103a565b610ad05760405162461bcd60e51b815260206004820152600760248201526650425f55494e4360c81b604482015260640161027e565b610ae2846001600160a01b031661103a565b610b185760405162461bcd60e51b815260206004820152600760248201526650425f50494e4360c81b604482015260640161027e565b610b2a836001600160a01b031661103a565b610b615760405162461bcd60e51b815260206004820152600860248201526750425f5650494e4360c01b604482015260640161027e565b610b73826001600160a01b031661103a565b610bab5760405162461bcd60e51b815260206004820152600960248201526850425f504250494e4360b81b604482015260640161027e565b60c980546001600160a01b038088166001600160a01b03199283161790925560ca805487841690831617905560cb805486841690831617905560cc805492851692909116919091179055610c1860cf730f69bb1828ee5689cbdc0309f368227bccd7f17c62034aa5611049565b50610c3c60cf73bb327eba8fc6085e8639e378fe86c73546ddab2d6202ab2d611049565b50610c5f60cf73a0e04247d39ebc07f38acca38dc10e14fa8d6c98611649611049565b50610c8360cf739d9250586e0443b49cbc975aa51dfb739c8ec50d62012c8f611049565b50610ca760cf7339e6382ec12e06eff56aead7b785a5d461b70e13620102dd611049565b50610cca60cf73530defd6c816809f54f6cfa6fe873646f6ecf93061f96a611049565b50610ced60cf73353d7e185b1567b7c2a54e031357aa41a7ba2e1f61dd58611049565b50610d1060cf734d930f0e508eedf38b19041225d8af8c153bf5e261a622611049565b50610d3360cf734a3eb6fea600d7e48256badcbe2931da9fc3999a619cf1611049565b50610d5660cf73e35bc00cf7c9d085d08084f2a1213701d6f86bcb61a65a611049565b50610d7960cf73b76bf854ef3a9105a2ffe204608d06c7a525960461462c611049565b50610d9c60cf7370d781bbf2a5454fe688452e2d27a9b71aa1e8ab617bc8611049565b50610dbf60cf736a654dc73e4e7666648044149f3a8162fd327c55617fcf611049565b50610de260cf7389501ea15422db2c483919afeb960be010a8839c6178ab611049565b50610e0560cf7368d779947734306136ebcecfc4aff6eb6ea4f5d9611de3611049565b50610e2860cf733f48b62e129326c1235891fdebabe2f3451ddd2e614f2b611049565b50610e4b60cf73fd4bd3416270f2a432797b82ca919e6fbc37ebc5617348611049565b50610e6e60cf738540078e825f1a7d1c12f3c8cd4dfd7a05fe2995616b79611049565b50610e9160cf73cacc55289917abaf27ea98c51c9af87c6f94f6bf61404d611049565b506601464b1acf5ec060cd55610ea5611067565b610ead611096565b8015610ef3576000805461ff0019169055604051600181527f7f26b83ff96e1f2b6a682f133852f6798a09c465da95921460cefb38474024989060200160405180910390a15b5050505050565b600080610f0860cf84610f96565b509392505050565b600260015403610f625760405162461bcd60e51b815260206004820152601f60248201527f5265656e7472616e637947756172643a207265656e7472616e742063616c6c00604482015260640161027e565b6002600155565b6000610f7e836001600160a01b0384166110c5565b9392505050565b60018055565b600061094a826110d1565b6000808080610fa586866110dc565b9097909650945050505050565b6065546001600160a01b031633146104f45760405162461bcd60e51b815260206004820181905260248201527f4f776e61626c653a2063616c6c6572206973206e6f7420746865206f776e6572604482015260640161027e565b609780546001600160a01b031916905561082981611107565b6000610f7e836001600160a01b038416611159565b6001600160a01b03163b151590565b600061105f846001600160a01b038516846111c9565b949350505050565b600054610100900460ff1661108e5760405162461bcd60e51b815260040161027e906114ba565b6104f46111e6565b600054610100900460ff166110bd5760405162461bcd60e51b815260040161027e906114ba565b6104f4611216565b6000610f7e838361123d565b600061094a82611255565b600080806110ea858561125f565b600081815260029690960160205260409095205494959350505050565b606580546001600160a01b038381166001600160a01b0319831681179093556040519116919082907f8be0079c531659141344cd1fd0a4f28419497f9722a3daafe3b4186f6b6457e090600090a35050565b60008181526002830160205260408120548015158061117d575061117d84846110c5565b610f7e5760405162461bcd60e51b815260206004820152601e60248201527f456e756d657261626c654d61703a206e6f6e6578697374656e74206b65790000604482015260640161027e565b6000828152600284016020526040812082905561105f848461126b565b600054610100900460ff1661120d5760405162461bcd60e51b815260040161027e906114ba565b6104f43361100c565b600054610100900460ff16610f855760405162461bcd60e51b815260040161027e906114ba565b60008181526001830160205260408120541515610f7e565b600061094a825490565b6000610f7e8383611277565b6000610f7e83836112a1565b600082600001828154811061128e5761128e611505565b9060005260206000200154905092915050565b60008181526001830160205260408120546112e85750815460018181018455600084815260208082209093018490558454848252828601909352604090209190915561094a565b50600061094a565b6001600160a01b0391909116815260200190565b80356001600160a01b038116811461131b57600080fd5b919050565b60006020828403121561133257600080fd5b610f7e82611304565b6000806040838503121561134e57600080fd5b61135783611304565b946020939093013593505050565b6000806000806080858703121561137b57600080fd5b61138485611304565b935061139260208601611304565b92506113a060408601611304565b91506113ae60608601611304565b905092959194509250565b6000602082840312156113cb57600080fd5b5035919050565b634e487b7160e01b600052601160045260246000fd5b60008261140557634e487b7160e01b600052601260045260246000fd5b500490565b808202811582820484141761094a5761094a6113d2565b60006020828403121561143357600080fd5b5051919050565b8082018082111561094a5761094a6113d2565b6001600160a01b03929092168252602082015260400190565b60006020828403121561147857600080fd5b81518015158114610f7e57600080fd5b8181038181111561094a5761094a6113d2565b600060ff821660ff81036114b1576114b16113d2565b60010192915050565b6020808252602b908201527f496e697469616c697a61626c653a20636f6e7472616374206973206e6f74206960408201526a6e697469616c697a696e6760a81b606082015260800190565b634e487b7160e01b600052603260045260246000fdfea26469706673582212200c6b664eb8edf88b72fa3ffd77fac5543412ec3f190f48db19706441c1bf09e964736f6c63430008110033",
  "devdoc": {
    "kind": "dev",
    "methods": {
      "acceptOwnership()": {
        "details": "The new owner accepts the ownership transfer."
      },
      "owner()": {
        "details": "Returns the address of the current owner."
      },
      "pendingOwner()": {
        "details": "Returns the address of the pending owner."
      },
      "renounceOwnership()": {
        "details": "Leaves the contract without owner. It will not be possible to call `onlyOwner` functions anymore. Can only be called by the current owner. NOTE: Renouncing ownership will leave the contract without an owner, thereby removing any functionality that is only available to the owner."
      },
      "transferOwnership(address)": {
        "details": "Starts the ownership transfer of the contract to a new account. Replaces the pending transfer if there is one. Can only be called by the current owner."
      }
    },
    "version": 1
  },
  "userdoc": {
    "kind": "user",
    "methods": {},
    "version": 1
  },
  "storageLayout": {
    "storage": [
      {
        "astId": 347,
        "contract": "src/PerpBuyback.sol:PerpBuyback",
        "label": "_initialized",
        "offset": 0,
        "slot": "0",
        "type": "t_uint8"
      },
      {
        "astId": 350,
        "contract": "src/PerpBuyback.sol:PerpBuyback",
        "label": "_initializing",
        "offset": 1,
        "slot": "0",
        "type": "t_bool"
      },
      {
        "astId": 523,
        "contract": "src/PerpBuyback.sol:PerpBuyback",
        "label": "_status",
        "offset": 0,
        "slot": "1",
        "type": "t_uint256"
      },
      {
        "astId": 581,
        "contract": "src/PerpBuyback.sol:PerpBuyback",
        "label": "__gap",
        "offset": 0,
        "slot": "2",
        "type": "t_array(t_uint256)49_storage"
      },
      {
        "astId": 985,
        "contract": "src/PerpBuyback.sol:PerpBuyback",
        "label": "__gap",
        "offset": 0,
        "slot": "51",
        "type": "t_array(t_uint256)50_storage"
      },
      {
        "astId": 219,
        "contract": "src/PerpBuyback.sol:PerpBuyback",
        "label": "_owner",
        "offset": 0,
        "slot": "101",
        "type": "t_address"
      },
      {
        "astId": 339,
        "contract": "src/PerpBuyback.sol:PerpBuyback",
        "label": "__gap",
        "offset": 0,
        "slot": "102",
        "type": "t_array(t_uint256)49_storage"
      },
      {
        "astId": 128,
        "contract": "src/PerpBuyback.sol:PerpBuyback",
        "label": "_pendingOwner",
        "offset": 0,
        "slot": "151",
        "type": "t_address"
      },
      {
        "astId": 207,
        "contract": "src/PerpBuyback.sol:PerpBuyback",
        "label": "__gap",
        "offset": 0,
        "slot": "152",
        "type": "t_array(t_uint256)49_storage"
      },
      {
        "astId": 4392,
        "contract": "src/PerpBuyback.sol:PerpBuyback",
        "label": "_usdc",
        "offset": 0,
        "slot": "201",
        "type": "t_address"
      },
      {
        "astId": 4394,
        "contract": "src/PerpBuyback.sol:PerpBuyback",
        "label": "_perp",
        "offset": 0,
        "slot": "202",
        "type": "t_address"
      },
      {
        "astId": 4396,
        "contract": "src/PerpBuyback.sol:PerpBuyback",
        "label": "_vePerp",
        "offset": 0,
        "slot": "203",
        "type": "t_address"
      },
      {
        "astId": 4398,
        "contract": "src/PerpBuyback.sol:PerpBuyback",
        "label": "_perpBuybackPool",
        "offset": 0,
        "slot": "204",
        "type": "t_address"
      },
      {
        "astId": 4400,
        "contract": "src/PerpBuyback.sol:PerpBuyback",
        "label": "_remainingBuybackUsdcAmount",
        "offset": 0,
        "slot": "205",
        "type": "t_uint256"
      },
      {
        "astId": 4404,
        "contract": "src/PerpBuyback.sol:PerpBuyback",
        "label": "_userClaimableVePerpAmount",
        "offset": 0,
        "slot": "206",
        "type": "t_mapping(t_address,t_uint256)"
      },
      {
        "astId": 4407,
        "contract": "src/PerpBuyback.sol:PerpBuyback",
        "label": "_sharesByUser",
        "offset": 0,
        "slot": "207",
        "type": "t_struct(AddressToUintMap)1676_storage"
      }
    ],
    "types": {
      "t_address": {
        "encoding": "inplace",
        "label": "address",
        "numberOfBytes": "20"
      },
      "t_array(t_bytes32)dyn_storage": {
        "base": "t_bytes32",
        "encoding": "dynamic_array",
        "label": "bytes32[]",
        "numberOfBytes": "32"
      },
      "t_array(t_uint256)49_storage": {
        "base": "t_uint256",
        "encoding": "inplace",
        "label": "uint256[49]",
        "numberOfBytes": "1568"
      },
      "t_array(t_uint256)50_storage": {
        "base": "t_uint256",
        "encoding": "inplace",
        "label": "uint256[50]",
        "numberOfBytes": "1600"
      },
      "t_bool": {
        "encoding": "inplace",
        "label": "bool",
        "numberOfBytes": "1"
      },
      "t_bytes32": {
        "encoding": "inplace",
        "label": "bytes32",
        "numberOfBytes": "32"
      },
      "t_mapping(t_address,t_uint256)": {
        "encoding": "mapping",
        "key": "t_address",
        "label": "mapping(address => uint256)",
        "numberOfBytes": "32",
        "value": "t_uint256"
      },
      "t_mapping(t_bytes32,t_bytes32)": {
        "encoding": "mapping",
        "key": "t_bytes32",
        "label": "mapping(bytes32 => bytes32)",
        "numberOfBytes": "32",
        "value": "t_bytes32"
      },
      "t_mapping(t_bytes32,t_uint256)": {
        "encoding": "mapping",
        "key": "t_bytes32",
        "label": "mapping(bytes32 => uint256)",
        "numberOfBytes": "32",
        "value": "t_uint256"
      },
      "t_struct(AddressToUintMap)1676_storage": {
        "encoding": "inplace",
        "label": "struct EnumerableMapUpgradeable.AddressToUintMap",
        "members": [
          {
            "astId": 1675,
            "contract": "src/PerpBuyback.sol:PerpBuyback",
            "label": "_inner",
            "offset": 0,
            "slot": "0",
            "type": "t_struct(Bytes32ToBytes32Map)1002_storage"
          }
        ],
        "numberOfBytes": "96"
      },
      "t_struct(Bytes32Set)2313_storage": {
        "encoding": "inplace",
        "label": "struct EnumerableSetUpgradeable.Bytes32Set",
        "members": [
          {
            "astId": 2312,
            "contract": "src/PerpBuyback.sol:PerpBuyback",
            "label": "_inner",
            "offset": 0,
            "slot": "0",
            "type": "t_struct(Set)2119_storage"
          }
        ],
        "numberOfBytes": "64"
      },
      "t_struct(Bytes32ToBytes32Map)1002_storage": {
        "encoding": "inplace",
        "label": "struct EnumerableMapUpgradeable.Bytes32ToBytes32Map",
        "members": [
          {
            "astId": 997,
            "contract": "src/PerpBuyback.sol:PerpBuyback",
            "label": "_keys",
            "offset": 0,
            "slot": "0",
            "type": "t_struct(Bytes32Set)2313_storage"
          },
          {
            "astId": 1001,
            "contract": "src/PerpBuyback.sol:PerpBuyback",
            "label": "_values",
            "offset": 0,
            "slot": "2",
            "type": "t_mapping(t_bytes32,t_bytes32)"
          }
        ],
        "numberOfBytes": "96"
      },
      "t_struct(Set)2119_storage": {
        "encoding": "inplace",
        "label": "struct EnumerableSetUpgradeable.Set",
        "members": [
          {
            "astId": 2114,
            "contract": "src/PerpBuyback.sol:PerpBuyback",
            "label": "_values",
            "offset": 0,
            "slot": "0",
            "type": "t_array(t_bytes32)dyn_storage"
          },
          {
            "astId": 2118,
            "contract": "src/PerpBuyback.sol:PerpBuyback",
            "label": "_indexes",
            "offset": 0,
            "slot": "1",
            "type": "t_mapping(t_bytes32,t_uint256)"
          }
        ],
        "numberOfBytes": "64"
      },
      "t_uint256": {
        "encoding": "inplace",
        "label": "uint256",
        "numberOfBytes": "32"
      },
      "t_uint8": {
        "encoding": "inplace",
        "label": "uint8",
        "numberOfBytes": "1"
      }
    }
  }
}